{
  "_format": "hh-sol-artifact-1",
  "contractName": "SWMS",
  "sourceName": "src/backend/contract/SWMS.sol",
  "abi": [
    {
      "inputs": [
        {
          "internalType": "uint256",
          "name": "_customerId",
          "type": "uint256"
        }
      ],
      "name": "customerExists",
      "outputs": [
        {
          "internalType": "bool",
          "name": "",
          "type": "bool"
        }
      ],
      "stateMutability": "view",
      "type": "function"
    },
    {
      "inputs": [
        {
          "internalType": "uint256",
          "name": "",
          "type": "uint256"
        }
      ],
      "name": "customers",
      "outputs": [
        {
          "internalType": "string",
          "name": "name",
          "type": "string"
        },
        {
          "internalType": "uint256",
          "name": "customerId",
          "type": "uint256"
        },
        {
          "internalType": "address payable",
          "name": "customer",
          "type": "address"
        },
        {
          "internalType": "string",
          "name": "customerAddress",
          "type": "string"
        },
        {
          "internalType": "string",
          "name": "password",
          "type": "string"
        }
      ],
      "stateMutability": "view",
      "type": "function"
    },
    {
      "inputs": [
        {
          "internalType": "uint256",
          "name": "_customerId",
          "type": "uint256"
        },
        {
          "internalType": "string",
          "name": "_password",
          "type": "string"
        }
      ],
      "name": "isValidCustomer",
      "outputs": [
        {
          "internalType": "bool",
          "name": "",
          "type": "bool"
        }
      ],
      "stateMutability": "view",
      "type": "function"
    },
    {
      "inputs": [
        {
          "internalType": "uint256",
          "name": "_customerId",
          "type": "uint256"
        },
        {
          "internalType": "string",
          "name": "_password",
          "type": "string"
        }
      ],
      "name": "loginCustomer",
      "outputs": [
        {
          "internalType": "bool",
          "name": "",
          "type": "bool"
        }
      ],
      "stateMutability": "view",
      "type": "function"
    },
    {
      "inputs": [
        {
          "internalType": "uint256",
          "name": "eths",
          "type": "uint256"
        }
      ],
      "name": "payCustomer",
      "outputs": [],
      "stateMutability": "nonpayable",
      "type": "function"
    },
    {
      "inputs": [
        {
          "internalType": "string",
          "name": "_name",
          "type": "string"
        },
        {
          "internalType": "string",
          "name": "_customerAddress",
          "type": "string"
        },
        {
          "internalType": "string",
          "name": "_password",
          "type": "string"
        }
      ],
      "name": "registerCustomer",
      "outputs": [
        {
          "internalType": "uint256",
          "name": "",
          "type": "uint256"
        }
      ],
      "stateMutability": "nonpayable",
      "type": "function"
    },
    {
      "inputs": [],
      "name": "totalCustomers",
      "outputs": [
        {
          "internalType": "uint256",
          "name": "",
          "type": "uint256"
        }
      ],
      "stateMutability": "view",
      "type": "function"
    }
  ],
  "bytecode": "0x608060405234801561001057600080fd5b50610e73806100206000396000f3fe608060405234801561001057600080fd5b506004361061007d5760003560e01c80637c17c41c1161005b5780637c17c41c14610100578063c0abda2a14610130578063c4cb221414610164578063f8e66a4d146101805761007d565b8063163388ae146100825780631866dcfb146100b25780636cd69bbd146100d0575b600080fd5b61009c6004803603810190610097919061081d565b6101b0565b6040516100a99190610a47565b60405180910390f35b6100ba6101ef565b6040516100c79190610b2a565b60405180910390f35b6100ea60048036038101906100e59190610846565b6101f5565b6040516100f79190610a47565b60405180910390f35b61011a60048036038101906101159190610846565b6102d3565b6040516101279190610a47565b60405180910390f35b61014a6004803603810190610145919061081d565b610352565b60405161015b959493929190610a62565b60405180910390f35b61017e6004803603810190610179919061081d565b610540565b005b61019a60048036038101906101959190610786565b610543565b6040516101a79190610b2a565b60405180910390f35b6000806001600084815260200190815260200160002060000180546101d490610c61565b905011156101e557600190506101ea565b600090505b919050565b60005481565b6000610200836101b0565b61023f576040517f08c379a000000000000000000000000000000000000000000000000000000000815260040161023690610aca565b60405180910390fd5b61024983836102d3565b610288576040517f08c379a000000000000000000000000000000000000000000000000000000000815260040161027f90610b0a565b60405180910390fd5b60006102c9576040517f08c379a00000000000000000000000000000000000000000000000000000000081526004016102c090610aea565b60405180910390fd5b6001905092915050565b6000816040516020016102e69190610a19565b60405160208183030381529060405280519060200120600160008581526020019081526020016000206004016040516020016103229190610a30565b604051602081830303815290604052805190602001201415610347576001905061034c565b600090505b92915050565b600160205280600052604060002060009150905080600001805461037590610c61565b80601f01602080910402602001604051908101604052809291908181526020018280546103a190610c61565b80156103ee5780601f106103c3576101008083540402835291602001916103ee565b820191906000526020600020905b8154815290600101906020018083116103d157829003601f168201915b5050505050908060010154908060020160009054906101000a900473ffffffffffffffffffffffffffffffffffffffff169080600301805461042f90610c61565b80601f016020809104026020016040519081016040528092919081815260200182805461045b90610c61565b80156104a85780601f1061047d576101008083540402835291602001916104a8565b820191906000526020600020905b81548152906001019060200180831161048b57829003601f168201915b5050505050908060040180546104bd90610c61565b80601f01602080910402602001604051908101604052809291908181526020018280546104e990610c61565b80156105365780601f1061050b57610100808354040283529160200191610536565b820191906000526020600020905b81548152906001019060200180831161051957829003601f168201915b5050505050905085565b50565b600080600081548092919061055790610cc4565b91905055506040518060a0016040528085815260200160005481526020013373ffffffffffffffffffffffffffffffffffffffff16815260200184815260200183815250600160008054815260200190815260200160002060008201518160000190805190602001906105cb929190610666565b506020820151816001015560408201518160020160006101000a81548173ffffffffffffffffffffffffffffffffffffffff021916908373ffffffffffffffffffffffffffffffffffffffff1602179055506060820151816003019080519060200190610639929190610666565b506080820151816004019080519060200190610656929190610666565b5090505060005490509392505050565b82805461067290610c61565b90600052602060002090601f01602090048101928261069457600085556106db565b82601f106106ad57805160ff19168380011785556106db565b828001600101855582156106db579182015b828111156106da5782518255916020019190600101906106bf565b5b5090506106e891906106ec565b5090565b5b808211156107055760008160009055506001016106ed565b5090565b600061071c61071784610b6a565b610b45565b90508281526020810184848401111561073457600080fd5b61073f848285610c1f565b509392505050565b600082601f83011261075857600080fd5b8135610768848260208601610709565b91505092915050565b60008135905061078081610e26565b92915050565b60008060006060848603121561079b57600080fd5b600084013567ffffffffffffffff8111156107b557600080fd5b6107c186828701610747565b935050602084013567ffffffffffffffff8111156107de57600080fd5b6107ea86828701610747565b925050604084013567ffffffffffffffff81111561080757600080fd5b61081386828701610747565b9150509250925092565b60006020828403121561082f57600080fd5b600061083d84828501610771565b91505092915050565b6000806040838503121561085957600080fd5b600061086785828601610771565b925050602083013567ffffffffffffffff81111561088457600080fd5b61089085828601610747565b9150509250929050565b6108a381610bd7565b82525050565b6108b281610be9565b82525050565b60006108c382610bb0565b6108cd8185610bbb565b93506108dd818560208601610c2e565b6108e681610d9a565b840191505092915050565b60006108fc82610bb0565b6109068185610bcc565b9350610916818560208601610c2e565b80840191505092915050565b6000815461092f81610c61565b6109398186610bcc565b94506001821660008114610954576001811461096557610998565b60ff19831686528186019350610998565b61096e85610b9b565b60005b8381101561099057815481890152600182019150602081019050610971565b838801955050505b50505092915050565b60006109ae601783610bbb565b91506109b982610dab565b602082019050919050565b60006109d1601083610bbb565b91506109dc82610dd4565b602082019050919050565b60006109f4601383610bbb565b91506109ff82610dfd565b602082019050919050565b610a1381610c15565b82525050565b6000610a2582846108f1565b915081905092915050565b6000610a3c8284610922565b915081905092915050565b6000602082019050610a5c60008301846108a9565b92915050565b600060a0820190508181036000830152610a7c81886108b8565b9050610a8b6020830187610a0a565b610a98604083018661089a565b8181036060830152610aaa81856108b8565b90508181036080830152610abe81846108b8565b90509695505050505050565b60006020820190508181036000830152610ae3816109a1565b9050919050565b60006020820190508181036000830152610b03816109c4565b9050919050565b60006020820190508181036000830152610b23816109e7565b9050919050565b6000602082019050610b3f6000830184610a0a565b92915050565b6000610b4f610b60565b9050610b5b8282610c93565b919050565b6000604051905090565b600067ffffffffffffffff821115610b8557610b84610d6b565b5b610b8e82610d9a565b9050602081019050919050565b60008190508160005260206000209050919050565b600081519050919050565b600082825260208201905092915050565b600081905092915050565b6000610be282610bf5565b9050919050565b60008115159050919050565b600073ffffffffffffffffffffffffffffffffffffffff82169050919050565b6000819050919050565b82818337600083830152505050565b60005b83811015610c4c578082015181840152602081019050610c31565b83811115610c5b576000848401525b50505050565b60006002820490506001821680610c7957607f821691505b60208210811415610c8d57610c8c610d3c565b5b50919050565b610c9c82610d9a565b810181811067ffffffffffffffff82111715610cbb57610cba610d6b565b5b80604052505050565b6000610ccf82610c15565b91507fffffffffffffffffffffffffffffffffffffffffffffffffffffffffffffffff821415610d0257610d01610d0d565b5b600182019050919050565b7f4e487b7100000000000000000000000000000000000000000000000000000000600052601160045260246000fd5b7f4e487b7100000000000000000000000000000000000000000000000000000000600052602260045260246000fd5b7f4e487b7100000000000000000000000000000000000000000000000000000000600052604160045260246000fd5b6000601f19601f8301169050919050565b7f437573746f6d6572206e6f742072656769737465726564000000000000000000600082015250565b7f4c6f67696e205375636365737366756c00000000000000000000000000000000600082015250565b7f496e76616c69642063726564656e7469616c7300000000000000000000000000600082015250565b610e2f81610c15565b8114610e3a57600080fd5b5056fea26469706673582212205c34caa8677f66ced3661beb57b230dad6a28fc7e4cb07d3e4f03af9b51415b364736f6c63430008040033",
  "linkReferences": {},
  "deployedLinkReferences": {}
}