{
  "_format": "hh-sol-artifact-1",
  "contractName": "SWMS",
  "sourceName": "src/backend/contract/SWMS.sol",
  "abi": [
    {
      "inputs": [
        {
          "internalType": "address",
          "name": "",
          "type": "address"
        }
      ],
      "name": "customerAddress",
      "outputs": [
        {
          "internalType": "bool",
          "name": "",
          "type": "bool"
        }
      ],
      "stateMutability": "view",
      "type": "function"
    },
    {
      "inputs": [
        {
          "internalType": "uint256",
          "name": "_customerId",
          "type": "uint256"
        }
      ],
      "name": "customerExists",
      "outputs": [
        {
          "internalType": "bool",
          "name": "",
          "type": "bool"
        }
      ],
      "stateMutability": "view",
      "type": "function"
    },
    {
      "inputs": [
        {
          "internalType": "uint256",
          "name": "",
          "type": "uint256"
        }
      ],
      "name": "customers",
      "outputs": [
        {
          "internalType": "string",
          "name": "name",
          "type": "string"
        },
        {
          "internalType": "uint256",
          "name": "customerId",
          "type": "uint256"
        },
        {
          "internalType": "address payable",
          "name": "customer",
          "type": "address"
        },
        {
          "internalType": "string",
          "name": "customerAddress",
          "type": "string"
        },
        {
          "internalType": "string",
          "name": "password",
          "type": "string"
        }
      ],
      "stateMutability": "view",
      "type": "function"
    },
    {
      "inputs": [
        {
          "internalType": "uint256",
          "name": "_customerId",
          "type": "uint256"
        },
        {
          "internalType": "string",
          "name": "_password",
          "type": "string"
        }
      ],
      "name": "isValidCustomer",
      "outputs": [
        {
          "internalType": "bool",
          "name": "",
          "type": "bool"
        }
      ],
      "stateMutability": "view",
      "type": "function"
    },
    {
      "inputs": [
        {
          "internalType": "uint256",
          "name": "_memberId",
          "type": "uint256"
        },
        {
          "internalType": "string",
          "name": "_password",
          "type": "string"
        }
      ],
      "name": "isValidmember",
      "outputs": [
        {
          "internalType": "bool",
          "name": "",
          "type": "bool"
        }
      ],
      "stateMutability": "view",
      "type": "function"
    },
    {
      "inputs": [
        {
          "internalType": "uint256",
          "name": "_customerId",
          "type": "uint256"
        },
        {
          "internalType": "string",
          "name": "_password",
          "type": "string"
        }
      ],
      "name": "loginCustomer",
      "outputs": [
        {
          "internalType": "bool",
          "name": "",
          "type": "bool"
        }
      ],
      "stateMutability": "view",
      "type": "function"
    },
    {
      "inputs": [
        {
          "internalType": "uint256",
          "name": "_memberId",
          "type": "uint256"
        },
        {
          "internalType": "string",
          "name": "_password",
          "type": "string"
        }
      ],
      "name": "loginmember",
      "outputs": [
        {
          "internalType": "bool",
          "name": "",
          "type": "bool"
        }
      ],
      "stateMutability": "view",
      "type": "function"
    },
    {
      "inputs": [
        {
          "internalType": "address",
          "name": "",
          "type": "address"
        }
      ],
      "name": "memberAddress",
      "outputs": [
        {
          "internalType": "bool",
          "name": "",
          "type": "bool"
        }
      ],
      "stateMutability": "view",
      "type": "function"
    },
    {
      "inputs": [
        {
          "internalType": "uint256",
          "name": "_memberId",
          "type": "uint256"
        }
      ],
      "name": "memberExists",
      "outputs": [
        {
          "internalType": "bool",
          "name": "",
          "type": "bool"
        }
      ],
      "stateMutability": "view",
      "type": "function"
    },
    {
      "inputs": [
        {
          "internalType": "uint256",
          "name": "",
          "type": "uint256"
        }
      ],
      "name": "members",
      "outputs": [
        {
          "internalType": "string",
          "name": "name",
          "type": "string"
        },
        {
          "internalType": "uint256",
          "name": "memberId",
          "type": "uint256"
        },
        {
          "internalType": "address payable",
          "name": "member",
          "type": "address"
        },
        {
          "internalType": "string",
          "name": "password",
          "type": "string"
        },
        {
          "internalType": "uint256",
          "name": "contactNumber",
          "type": "uint256"
        }
      ],
      "stateMutability": "view",
      "type": "function"
    },
    {
      "inputs": [
        {
          "internalType": "uint256",
          "name": "eths",
          "type": "uint256"
        }
      ],
      "name": "payCustomer",
      "outputs": [],
      "stateMutability": "nonpayable",
      "type": "function"
    },
    {
      "inputs": [
        {
          "internalType": "string",
          "name": "_name",
          "type": "string"
        },
        {
          "internalType": "uint256",
          "name": "_contactNumber",
          "type": "uint256"
        },
        {
          "internalType": "string",
          "name": "_password",
          "type": "string"
        }
      ],
      "name": "registerCommittee",
      "outputs": [
        {
          "internalType": "uint256",
          "name": "",
          "type": "uint256"
        }
      ],
      "stateMutability": "nonpayable",
      "type": "function"
    },
    {
      "inputs": [
        {
          "internalType": "string",
          "name": "_name",
          "type": "string"
        },
        {
          "internalType": "string",
          "name": "_customerAddress",
          "type": "string"
        },
        {
          "internalType": "string",
          "name": "_password",
          "type": "string"
        }
      ],
      "name": "registerCustomer",
      "outputs": [
        {
          "internalType": "uint256",
          "name": "",
          "type": "uint256"
        }
      ],
      "stateMutability": "nonpayable",
      "type": "function"
    },
    {
      "inputs": [],
      "name": "totalCustomers",
      "outputs": [
        {
          "internalType": "uint256",
          "name": "",
          "type": "uint256"
        }
      ],
      "stateMutability": "view",
      "type": "function"
    },
    {
      "inputs": [],
      "name": "totalMembers",
      "outputs": [
        {
          "internalType": "uint256",
          "name": "",
          "type": "uint256"
        }
      ],
      "stateMutability": "view",
      "type": "function"
    }
  ],
  "bytecode": "0x608060405234801561001057600080fd5b50611811806100206000396000f3fe608060405234801561001057600080fd5b50600436106100f55760003560e01c80636bdcc8ab11610097578063987cc11d11610066578063987cc11d146102ea578063c0abda2a1461031a578063c4cb22141461034e578063f8e66a4d1461036a576100f5565b80636bdcc8ab1461023c5780636cd69bbd1461026c57806376e925591461029c5780637c17c41c146102ba576100f5565b80631e0fd101116100d35780631e0fd101146101785780632e048f60146101a85780634e1a5d12146101d85780635daf08ca14610208576100f5565b806310c26add146100fa578063163388ae1461012a5780631866dcfb1461015a575b600080fd5b610114600480360381019061010f91906110be565b61039a565b60405161012191906112e2565b60405180910390f35b610144600480360381019061013f9190611095565b610437565b60405161015191906112e2565b60405180910390f35b610162610476565b60405161016f9190611476565b60405180910390f35b610192600480360381019061018d9190610f56565b61047c565b60405161019f91906112e2565b60405180910390f35b6101c260048036038101906101bd91906110be565b61049c565b6040516101cf91906112e2565b60405180910390f35b6101f260048036038101906101ed9190611016565b61051b565b6040516101ff9190611476565b60405180910390f35b610222600480360381019061021d9190611095565b610676565b604051610233959493929190611395565b60405180910390f35b61025660048036038101906102519190611095565b6107dc565b60405161026391906112e2565b60405180910390f35b610286600480360381019061028191906110be565b61081b565b60405161029391906112e2565b60405180910390f35b6102a46108b8565b6040516102b19190611476565b60405180910390f35b6102d460048036038101906102cf91906110be565b6108be565b6040516102e191906112e2565b60405180910390f35b61030460048036038101906102ff9190610f56565b61093d565b60405161031191906112e2565b60405180910390f35b610334600480360381019061032f9190611095565b61095d565b60405161034595949392919061132d565b60405180910390f35b61036860048036038101906103639190611095565b610b4b565b005b610384600480360381019061037f9190610f7f565b610b4e565b6040516103919190611476565b60405180910390f35b60006103a5836107dc565b6103e4576040517f08c379a00000000000000000000000000000000000000000000000000000000081526004016103db90611416565b60405180910390fd5b6103ee838361049c565b61042d576040517f08c379a000000000000000000000000000000000000000000000000000000000815260040161042490611456565b60405180910390fd5b6001905092915050565b60008060026000848152602001908152602001600020600001805461045b906115bf565b9050111561046c5760019050610471565b600090505b919050565b60005481565b60046020528060005260406000206000915054906101000a900460ff1681565b6000816040516020016104af91906112b4565b60405160208183030381529060405280519060200120600360008581526020019081526020016000206003016040516020016104eb91906112cb565b6040516020818303038152906040528051906020012014156105105760019050610515565b600090505b92915050565b600061052633610cb2565b15610566576040517f08c379a000000000000000000000000000000000000000000000000000000000815260040161055d90611436565b60405180910390fd5b6001600081548092919061057990611622565b91905055506040518060a0016040528085815260200160015481526020013373ffffffffffffffffffffffffffffffffffffffff1681526020018381526020018481525060036000600154815260200190815260200160002060008201518160000190805190602001906105ee929190610e21565b506020820151816001015560408201518160020160006101000a81548173ffffffffffffffffffffffffffffffffffffffff021916908373ffffffffffffffffffffffffffffffffffffffff160217905550606082015181600301908051906020019061065c929190610e21565b506080820151816004015590505060015490509392505050565b6003602052806000526040600020600091509050806000018054610699906115bf565b80601f01602080910402602001604051908101604052809291908181526020018280546106c5906115bf565b80156107125780601f106106e757610100808354040283529160200191610712565b820191906000526020600020905b8154815290600101906020018083116106f557829003601f168201915b5050505050908060010154908060020160009054906101000a900473ffffffffffffffffffffffffffffffffffffffff1690806003018054610753906115bf565b80601f016020809104026020016040519081016040528092919081815260200182805461077f906115bf565b80156107cc5780601f106107a1576101008083540402835291602001916107cc565b820191906000526020600020905b8154815290600101906020018083116107af57829003601f168201915b5050505050908060040154905085565b600080600360008481526020019081526020016000206000018054610800906115bf565b905011156108115760019050610816565b600090505b919050565b600061082683610437565b610865576040517f08c379a000000000000000000000000000000000000000000000000000000000815260040161085c906113f6565b60405180910390fd5b61086f83836108be565b6108ae576040517f08c379a00000000000000000000000000000000000000000000000000000000081526004016108a590611456565b60405180910390fd5b6001905092915050565b60015481565b6000816040516020016108d191906112b4565b604051602081830303815290604052805190602001206002600085815260200190815260200160002060040160405160200161090d91906112cb565b6040516020818303038152906040528051906020012014156109325760019050610937565b600090505b92915050565b60056020528060005260406000206000915054906101000a900460ff1681565b6002602052806000526040600020600091509050806000018054610980906115bf565b80601f01602080910402602001604051908101604052809291908181526020018280546109ac906115bf565b80156109f95780601f106109ce576101008083540402835291602001916109f9565b820191906000526020600020905b8154815290600101906020018083116109dc57829003601f168201915b5050505050908060010154908060020160009054906101000a900473ffffffffffffffffffffffffffffffffffffffff1690806003018054610a3a906115bf565b80601f0160208091040260200160405190810160405280929190818152602001828054610a66906115bf565b8015610ab35780601f10610a8857610100808354040283529160200191610ab3565b820191906000526020600020905b815481529060010190602001808311610a9657829003601f168201915b505050505090806004018054610ac8906115bf565b80601f0160208091040260200160405190810160405280929190818152602001828054610af4906115bf565b8015610b415780601f10610b1657610100808354040283529160200191610b41565b820191906000526020600020905b815481529060010190602001808311610b2457829003601f168201915b5050505050905085565b50565b6000806000815480929190610b6290611622565b91905055506040518060a0016040528085815260200160005481526020013373ffffffffffffffffffffffffffffffffffffffff1681526020018481526020018381525060026000805481526020019081526020016000206000820151816000019080519060200190610bd6929190610e21565b506020820151816001015560408201518160020160006101000a81548173ffffffffffffffffffffffffffffffffffffffff021916908373ffffffffffffffffffffffffffffffffffffffff1602179055506060820151816003019080519060200190610c44929190610e21565b506080820151816004019080519060200190610c61929190610e21565b50905050610ca66040518060400160405280600681526020017f496e20736f6c0000000000000000000000000000000000000000000000000000815250600054610d5c565b60005490509392505050565b6000600460008373ffffffffffffffffffffffffffffffffffffffff1673ffffffffffffffffffffffffffffffffffffffff16815260200190815260200160002060009054906101000a900460ff1680610d555750600560008373ffffffffffffffffffffffffffffffffffffffff1673ffffffffffffffffffffffffffffffffffffffff16815260200190815260200160002060009054906101000a900460ff165b9050919050565b610df48282604051602401610d729291906112fd565b6040516020818303038152906040527fb60e72cc000000000000000000000000000000000000000000000000000000007bffffffffffffffffffffffffffffffffffffffffffffffffffffffff19166020820180517bffffffffffffffffffffffffffffffffffffffffffffffffffffffff8381831617835250505050610df8565b5050565b60008151905060006a636f6e736f6c652e6c6f679050602083016000808483855afa5050505050565b828054610e2d906115bf565b90600052602060002090601f016020900481019282610e4f5760008555610e96565b82601f10610e6857805160ff1916838001178555610e96565b82800160010185558215610e96579182015b82811115610e95578251825591602001919060010190610e7a565b5b509050610ea39190610ea7565b5090565b5b80821115610ec0576000816000905550600101610ea8565b5090565b6000610ed7610ed2846114b6565b611491565b905082815260208101848484011115610eef57600080fd5b610efa84828561157d565b509392505050565b600081359050610f11816117ad565b92915050565b600082601f830112610f2857600080fd5b8135610f38848260208601610ec4565b91505092915050565b600081359050610f50816117c4565b92915050565b600060208284031215610f6857600080fd5b6000610f7684828501610f02565b91505092915050565b600080600060608486031215610f9457600080fd5b600084013567ffffffffffffffff811115610fae57600080fd5b610fba86828701610f17565b935050602084013567ffffffffffffffff811115610fd757600080fd5b610fe386828701610f17565b925050604084013567ffffffffffffffff81111561100057600080fd5b61100c86828701610f17565b9150509250925092565b60008060006060848603121561102b57600080fd5b600084013567ffffffffffffffff81111561104557600080fd5b61105186828701610f17565b935050602061106286828701610f41565b925050604084013567ffffffffffffffff81111561107f57600080fd5b61108b86828701610f17565b9150509250925092565b6000602082840312156110a757600080fd5b60006110b584828501610f41565b91505092915050565b600080604083850312156110d157600080fd5b60006110df85828601610f41565b925050602083013567ffffffffffffffff8111156110fc57600080fd5b61110885828601610f17565b9150509250929050565b61111b81611535565b82525050565b61112a81611547565b82525050565b600061113b826114fc565b6111458185611507565b935061115581856020860161158c565b61115e816116f8565b840191505092915050565b6000611174826114fc565b61117e8185611518565b935061118e81856020860161158c565b80840191505092915050565b600081546111a7816115bf565b6111b18186611518565b945060018216600081146111cc57600181146111dd57611210565b60ff19831686528186019350611210565b6111e6856114e7565b60005b83811015611208578154818901526001820191506020810190506111e9565b838801955050505b50505092915050565b6000611226601783611507565b915061123182611709565b602082019050919050565b6000611249601583611507565b915061125482611732565b602082019050919050565b600061126c601a83611507565b91506112778261175b565b602082019050919050565b600061128f601383611507565b915061129a82611784565b602082019050919050565b6112ae81611573565b82525050565b60006112c08284611169565b915081905092915050565b60006112d7828461119a565b915081905092915050565b60006020820190506112f76000830184611121565b92915050565b600060408201905081810360008301526113178185611130565b905061132660208301846112a5565b9392505050565b600060a08201905081810360008301526113478188611130565b905061135660208301876112a5565b6113636040830186611112565b81810360608301526113758185611130565b905081810360808301526113898184611130565b90509695505050505050565b600060a08201905081810360008301526113af8188611130565b90506113be60208301876112a5565b6113cb6040830186611112565b81810360608301526113dd8185611130565b90506113ec60808301846112a5565b9695505050505050565b6000602082019050818103600083015261140f81611219565b9050919050565b6000602082019050818103600083015261142f8161123c565b9050919050565b6000602082019050818103600083015261144f8161125f565b9050919050565b6000602082019050818103600083015261146f81611282565b9050919050565b600060208201905061148b60008301846112a5565b92915050565b600061149b6114ac565b90506114a782826115f1565b919050565b6000604051905090565b600067ffffffffffffffff8211156114d1576114d06116c9565b5b6114da826116f8565b9050602081019050919050565b60008190508160005260206000209050919050565b600081519050919050565b600082825260208201905092915050565b600081905092915050565b600061152e82611553565b9050919050565b600061154082611553565b9050919050565b60008115159050919050565b600073ffffffffffffffffffffffffffffffffffffffff82169050919050565b6000819050919050565b82818337600083830152505050565b60005b838110156115aa57808201518184015260208101905061158f565b838111156115b9576000848401525b50505050565b600060028204905060018216806115d757607f821691505b602082108114156115eb576115ea61169a565b5b50919050565b6115fa826116f8565b810181811067ffffffffffffffff82111715611619576116186116c9565b5b80604052505050565b600061162d82611573565b91507fffffffffffffffffffffffffffffffffffffffffffffffffffffffffffffffff8214156116605761165f61166b565b5b600182019050919050565b7f4e487b7100000000000000000000000000000000000000000000000000000000600052601160045260246000fd5b7f4e487b7100000000000000000000000000000000000000000000000000000000600052602260045260246000fd5b7f4e487b7100000000000000000000000000000000000000000000000000000000600052604160045260246000fd5b6000601f19601f8301169050919050565b7f437573746f6d6572206e6f742072656769737465726564000000000000000000600082015250565b7f6d656d626572206e6f7420726567697374657265640000000000000000000000600082015250565b7f506c656173652075736520616e6f746865722061646472657373000000000000600082015250565b7f496e76616c69642063726564656e7469616c7300000000000000000000000000600082015250565b6117b681611523565b81146117c157600080fd5b50565b6117cd81611573565b81146117d857600080fd5b5056fea2646970667358221220a9a652b1972580b9029f25b6b455d8950174648f4d778cd648add4474762942464736f6c63430008040033",
  "linkReferences": {},
  "deployedLinkReferences": {}
}