{
  "_format": "hh-sol-artifact-1",
  "contractName": "SWMS",
  "sourceName": "src/backend/contract/SWMS.sol",
  "abi": [
    {
      "inputs": [
        {
          "internalType": "uint256",
          "name": "_customerId",
          "type": "uint256"
        },
        {
          "internalType": "uint256",
          "name": "_weight",
          "type": "uint256"
        }
      ],
      "name": "addWaste",
      "outputs": [],
      "stateMutability": "nonpayable",
      "type": "function"
    },
    {
      "inputs": [
        {
          "internalType": "uint256",
          "name": "_customerId",
          "type": "uint256"
        }
      ],
      "name": "collectWaste",
      "outputs": [
        {
          "internalType": "uint256",
          "name": "",
          "type": "uint256"
        }
      ],
      "stateMutability": "nonpayable",
      "type": "function"
    },
    {
      "inputs": [
        {
          "internalType": "address",
          "name": "",
          "type": "address"
        }
      ],
      "name": "customerAddress",
      "outputs": [
        {
          "internalType": "bool",
          "name": "",
          "type": "bool"
        }
      ],
      "stateMutability": "view",
      "type": "function"
    },
    {
      "inputs": [
        {
          "internalType": "uint256",
          "name": "_customerId",
          "type": "uint256"
        }
      ],
      "name": "customerExists",
      "outputs": [
        {
          "internalType": "bool",
          "name": "",
          "type": "bool"
        }
      ],
      "stateMutability": "view",
      "type": "function"
    },
    {
      "inputs": [
        {
          "internalType": "address",
          "name": "",
          "type": "address"
        }
      ],
      "name": "customerLoggedIn",
      "outputs": [
        {
          "internalType": "bool",
          "name": "",
          "type": "bool"
        }
      ],
      "stateMutability": "view",
      "type": "function"
    },
    {
      "inputs": [
        {
          "internalType": "uint256",
          "name": "",
          "type": "uint256"
        }
      ],
      "name": "customers",
      "outputs": [
        {
          "internalType": "string",
          "name": "name",
          "type": "string"
        },
        {
          "internalType": "uint256",
          "name": "customerId",
          "type": "uint256"
        },
        {
          "internalType": "address payable",
          "name": "customer",
          "type": "address"
        },
        {
          "internalType": "string",
          "name": "customerAddress",
          "type": "string"
        },
        {
          "internalType": "string",
          "name": "password",
          "type": "string"
        },
        {
          "internalType": "uint256",
          "name": "weight",
          "type": "uint256"
        },
        {
          "internalType": "uint256",
          "name": "memberId",
          "type": "uint256"
        }
      ],
      "stateMutability": "view",
      "type": "function"
    },
    {
      "inputs": [],
      "name": "findAvailableMember",
      "outputs": [
        {
          "internalType": "uint256",
          "name": "",
          "type": "uint256"
        }
      ],
      "stateMutability": "view",
      "type": "function"
    },
    {
      "inputs": [],
      "name": "firstQueue",
      "outputs": [
        {
          "internalType": "uint256",
          "name": "",
          "type": "uint256"
        }
      ],
      "stateMutability": "view",
      "type": "function"
    },
    {
      "inputs": [
        {
          "internalType": "uint256",
          "name": "_customerId",
          "type": "uint256"
        },
        {
          "internalType": "string",
          "name": "_password",
          "type": "string"
        }
      ],
      "name": "isValidCustomer",
      "outputs": [
        {
          "internalType": "bool",
          "name": "",
          "type": "bool"
        }
      ],
      "stateMutability": "view",
      "type": "function"
    },
    {
      "inputs": [
        {
          "internalType": "uint256",
          "name": "_memberId",
          "type": "uint256"
        },
        {
          "internalType": "string",
          "name": "_password",
          "type": "string"
        }
      ],
      "name": "isValidmember",
      "outputs": [
        {
          "internalType": "bool",
          "name": "",
          "type": "bool"
        }
      ],
      "stateMutability": "view",
      "type": "function"
    },
    {
      "inputs": [],
      "name": "lastQueue",
      "outputs": [
        {
          "internalType": "uint256",
          "name": "",
          "type": "uint256"
        }
      ],
      "stateMutability": "view",
      "type": "function"
    },
    {
      "inputs": [
        {
          "internalType": "uint256",
          "name": "_customerId",
          "type": "uint256"
        },
        {
          "internalType": "string",
          "name": "_password",
          "type": "string"
        }
      ],
      "name": "loginCustomer",
      "outputs": [
        {
          "internalType": "bool",
          "name": "",
          "type": "bool"
        }
      ],
      "stateMutability": "nonpayable",
      "type": "function"
    },
    {
      "inputs": [
        {
          "internalType": "uint256",
          "name": "_memberId",
          "type": "uint256"
        },
        {
          "internalType": "string",
          "name": "_password",
          "type": "string"
        }
      ],
      "name": "loginMember",
      "outputs": [
        {
          "internalType": "bool",
          "name": "",
          "type": "bool"
        }
      ],
      "stateMutability": "nonpayable",
      "type": "function"
    },
    {
      "inputs": [
        {
          "internalType": "address",
          "name": "",
          "type": "address"
        }
      ],
      "name": "memberAddress",
      "outputs": [
        {
          "internalType": "bool",
          "name": "",
          "type": "bool"
        }
      ],
      "stateMutability": "view",
      "type": "function"
    },
    {
      "inputs": [
        {
          "internalType": "uint256",
          "name": "_memberId",
          "type": "uint256"
        }
      ],
      "name": "memberExists",
      "outputs": [
        {
          "internalType": "bool",
          "name": "",
          "type": "bool"
        }
      ],
      "stateMutability": "view",
      "type": "function"
    },
    {
      "inputs": [
        {
          "internalType": "address",
          "name": "",
          "type": "address"
        }
      ],
      "name": "memberLoggedIn",
      "outputs": [
        {
          "internalType": "bool",
          "name": "",
          "type": "bool"
        }
      ],
      "stateMutability": "view",
      "type": "function"
    },
    {
      "inputs": [
        {
          "internalType": "uint256",
          "name": "",
          "type": "uint256"
        }
      ],
      "name": "members",
      "outputs": [
        {
          "internalType": "string",
          "name": "name",
          "type": "string"
        },
        {
          "internalType": "uint256",
          "name": "memberId",
          "type": "uint256"
        },
        {
          "internalType": "address payable",
          "name": "member",
          "type": "address"
        },
        {
          "internalType": "string",
          "name": "password",
          "type": "string"
        },
        {
          "internalType": "uint256",
          "name": "contactNumber",
          "type": "uint256"
        },
        {
          "internalType": "bool",
          "name": "isAvailable",
          "type": "bool"
        },
        {
          "internalType": "uint256",
          "name": "customerId",
          "type": "uint256"
        }
      ],
      "stateMutability": "view",
      "type": "function"
    },
    {
      "inputs": [
        {
          "internalType": "uint256",
          "name": "eths",
          "type": "uint256"
        }
      ],
      "name": "payCustomer",
      "outputs": [],
      "stateMutability": "nonpayable",
      "type": "function"
    },
    {
      "inputs": [
        {
          "internalType": "string",
          "name": "_name",
          "type": "string"
        },
        {
          "internalType": "uint256",
          "name": "_contactNumber",
          "type": "uint256"
        },
        {
          "internalType": "string",
          "name": "_password",
          "type": "string"
        }
      ],
      "name": "registerCommittee",
      "outputs": [
        {
          "internalType": "uint256",
          "name": "",
          "type": "uint256"
        }
      ],
      "stateMutability": "nonpayable",
      "type": "function"
    },
    {
      "inputs": [
        {
          "internalType": "string",
          "name": "_name",
          "type": "string"
        },
        {
          "internalType": "string",
          "name": "_customerAddress",
          "type": "string"
        },
        {
          "internalType": "string",
          "name": "_password",
          "type": "string"
        }
      ],
      "name": "registerCustomer",
      "outputs": [
        {
          "internalType": "uint256",
          "name": "",
          "type": "uint256"
        }
      ],
      "stateMutability": "nonpayable",
      "type": "function"
    },
    {
      "inputs": [],
      "name": "totalCustomers",
      "outputs": [
        {
          "internalType": "uint256",
          "name": "",
          "type": "uint256"
        }
      ],
      "stateMutability": "view",
      "type": "function"
    },
    {
      "inputs": [],
      "name": "totalMembers",
      "outputs": [
        {
          "internalType": "uint256",
          "name": "",
          "type": "uint256"
        }
      ],
      "stateMutability": "view",
      "type": "function"
    },
    {
      "inputs": [
        {
          "internalType": "uint256",
          "name": "_memberId",
          "type": "uint256"
        },
        {
          "internalType": "uint256",
          "name": "_customerId",
          "type": "uint256"
        }
      ],
      "name": "updateWasteCollected",
      "outputs": [],
      "stateMutability": "nonpayable",
      "type": "function"
    }
  ],
  "bytecode": "0x60806040526101f46002556001600a556000600b5534801561002057600080fd5b506128ca806100306000396000f3fe608060405234801561001057600080fd5b506004361061014d5760003560e01c80635e8bcda9116100c3578063a4800c2e1161007c578063a4800c2e1461041a578063c0abda2a1461044a578063c4cb221414610480578063c5df28821461049c578063d76906ac146104cc578063f8e66a4d146104e85761014d565b80635e8bcda91461030c5780636bdcc8ab1461033c5780636cd69bbd1461036c57806376e925591461039c5780637c17c41c146103ba578063987cc11d146103ea5761014d565b8063295d676611610115578063295d67661461021e5780632e048f601461023c5780634e1a5d121461026c5780635135fb731461029c578063547c3648146102b85780635daf08ca146102d65761014d565b8063163388ae146101525780631866dcfb146101825780631e0fd101146101a057806320852a8c146101d0578063295ca7fb14610200575b600080fd5b61016c60048036038101906101679190611e0d565b610518565b604051610179919061214c565b60405180910390f35b61018a6105d5565b60405161019791906123ba565b60405180910390f35b6101ba60048036038101906101b59190611cce565b6105db565b6040516101c7919061214c565b60405180910390f35b6101ea60048036038101906101e59190611e36565b6105fb565b6040516101f7919061214c565b60405180910390f35b61020861072e565b60405161021591906123ba565b60405180910390f35b610226610734565b60405161023391906123ba565b60405180910390f35b61025660048036038101906102519190611e36565b61079a565b604051610263919061214c565b60405180910390f35b61028660048036038101906102819190611d8e565b610819565b60405161029391906123ba565b60405180910390f35b6102b660048036038101906102b19190611e8a565b610a9c565b005b6102c0610bc4565b6040516102cd91906123ba565b60405180910390f35b6102f060048036038101906102eb9190611e0d565b610bca565b604051610303979695949392919061223d565b60405180910390f35b61032660048036038101906103219190611cce565b610d49565b604051610333919061214c565b60405180910390f35b61035660048036038101906103519190611e0d565b610d69565b604051610363919061214c565b60405180910390f35b61038660048036038101906103819190611e36565b610e1c565b604051610393919061214c565b60405180910390f35b6103a4610f4f565b6040516103b191906123ba565b60405180910390f35b6103d460048036038101906103cf9190611e36565b610f55565b6040516103e1919061214c565b60405180910390f35b61040460048036038101906103ff9190611cce565b610fd4565b604051610411919061214c565b60405180910390f35b610434600480360381019061042f9190611cce565b610ff4565b604051610441919061214c565b60405180910390f35b610464600480360381019061045f9190611e0d565b611014565b60405161047797969594939291906121b9565b60405180910390f35b61049a60048036038101906104959190611e0d565b61120e565b005b6104b660048036038101906104b19190611e0d565b611211565b6040516104c391906123ba565b60405180910390f35b6104e660048036038101906104e19190611e8a565b6114b8565b005b61050260048036038101906104fd9190611cf7565b611575565b60405161050f91906123ba565b60405180910390f35b60003373ffffffffffffffffffffffffffffffffffffffff166003600084815260200190815260200160002060020160009054906101000a900473ffffffffffffffffffffffffffffffffffffffff1673ffffffffffffffffffffffffffffffffffffffff16141561058d57600190506105d0565b6105cb6040518060400160405280601781526020017f437573746f6d6572206e6f74207265676973746572656400000000000000000081525061179c565b600090505b919050565b60005481565b60056020528060005260406000206000915054906101000a900460ff1681565b600061060683610d69565b610645576040517f08c379a000000000000000000000000000000000000000000000000000000000815260040161063c9061233a565b60405180910390fd5b61064f838361079a565b61068e576040517f08c379a0000000000000000000000000000000000000000000000000000000008152600401610685906122ba565b60405180910390fd5b6106cc6040518060400160405280601081526020017f4c6f67696e205375636365737366756c0000000000000000000000000000000081525061179c565b6001600860003373ffffffffffffffffffffffffffffffffffffffff1673ffffffffffffffffffffffffffffffffffffffff16815260200190815260200160002060006101000a81548160ff0219169083151502179055506001905092915050565b600b5481565b600080600190505b600154811161079157600115156004600083815260200190815260200160002060050160009054906101000a900460ff161515141561077e5780915050610797565b8080610789906125bc565b91505061073c565b50600090505b90565b6000816040516020016107ad9190612103565b60405160208183030381529060405280519060200120600460008581526020019081526020016000206003016040516020016107e9919061211a565b60405160208183030381529060405280519060200120141561080e5760019050610813565b600090505b92915050565b600061082433611835565b15610864576040517f08c379a000000000000000000000000000000000000000000000000000000000815260040161085b9061231a565b60405180910390fd5b60016000815480929190610877906125bc565b91905055506040518060e0016040528085815260200160015481526020013373ffffffffffffffffffffffffffffffffffffffff168152602001838152602001848152602001600115158152602001600081525060046000600154815260200190815260200160002060008201518160000190805190602001906108fc929190611b99565b506020820151816001015560408201518160020160006101000a81548173ffffffffffffffffffffffffffffffffffffffff021916908373ffffffffffffffffffffffffffffffffffffffff160217905550606082015181600301908051906020019061096a929190611b99565b506080820151816004015560a08201518160050160006101000a81548160ff02191690831515021790555060c082015181600601559050506001600660003373ffffffffffffffffffffffffffffffffffffffff1673ffffffffffffffffffffffffffffffffffffffff16815260200190815260200160002060006101000a81548160ff021916908315150217905550610a3b6040518060400160405280600b81526020017f4d656d6265722049643a200000000000000000000000000000000000000000008152506001546118e8565b600a54600b5410610a9057610a846040518060400160405280600781526020017f496e2069662e2e0000000000000000000000000000000000000000000000000081525061179c565b610a8f600154611984565b5b60015490509392505050565b600860003373ffffffffffffffffffffffffffffffffffffffff1673ffffffffffffffffffffffffffffffffffffffff16815260200190815260200160002060009054906101000a900460ff16610b28576040517f08c379a0000000000000000000000000000000000000000000000000000000008152600401610b1f9061237a565b60405180910390fd5b600060036000838152602001908152602001600020600501819055506000600360008381526020019081526020016000206006018190555060016004600084815260200190815260200160002060050160006101000a81548160ff02191690831515021790555060006004600084815260200190815260200160002060060181905550600a54600b5410610bc057610bbf82611984565b5b5050565b600a5481565b6004602052806000526040600020600091509050806000018054610bed90612559565b80601f0160208091040260200160405190810160405280929190818152602001828054610c1990612559565b8015610c665780601f10610c3b57610100808354040283529160200191610c66565b820191906000526020600020905b815481529060010190602001808311610c4957829003601f168201915b5050505050908060010154908060020160009054906101000a900473ffffffffffffffffffffffffffffffffffffffff1690806003018054610ca790612559565b80601f0160208091040260200160405190810160405280929190818152602001828054610cd390612559565b8015610d205780601f10610cf557610100808354040283529160200191610d20565b820191906000526020600020905b815481529060010190602001808311610d0357829003601f168201915b5050505050908060040154908060050160009054906101000a900460ff16908060060154905087565b60086020528060005260406000206000915054906101000a900460ff1681565b60003373ffffffffffffffffffffffffffffffffffffffff166004600084815260200190815260200160002060020160009054906101000a900473ffffffffffffffffffffffffffffffffffffffff1673ffffffffffffffffffffffffffffffffffffffff161415610dde5760019050610e17565b6000600460008481526020019081526020016000206000018054610e0190612559565b90501115610e125760019050610e17565b600090505b919050565b6000610e2783610518565b610e66576040517f08c379a0000000000000000000000000000000000000000000000000000000008152600401610e5d906122da565b60405180910390fd5b610e708383610f55565b610eaf576040517f08c379a0000000000000000000000000000000000000000000000000000000008152600401610ea6906122ba565b60405180910390fd5b610eed6040518060400160405280601181526020017f5375636365737366756c206c6f67696e2100000000000000000000000000000081525061179c565b6001600760003373ffffffffffffffffffffffffffffffffffffffff1673ffffffffffffffffffffffffffffffffffffffff16815260200190815260200160002060006101000a81548160ff0219169083151502179055506001905092915050565b60015481565b600081604051602001610f689190612103565b6040516020818303038152906040528051906020012060036000858152602001908152602001600020600401604051602001610fa4919061211a565b604051602081830303815290604052805190602001201415610fc95760019050610fce565b600090505b92915050565b60066020528060005260406000206000915054906101000a900460ff1681565b60076020528060005260406000206000915054906101000a900460ff1681565b600360205280600052604060002060009150905080600001805461103790612559565b80601f016020809104026020016040519081016040528092919081815260200182805461106390612559565b80156110b05780601f10611085576101008083540402835291602001916110b0565b820191906000526020600020905b81548152906001019060200180831161109357829003601f168201915b5050505050908060010154908060020160009054906101000a900473ffffffffffffffffffffffffffffffffffffffff16908060030180546110f190612559565b80601f016020809104026020016040519081016040528092919081815260200182805461111d90612559565b801561116a5780601f1061113f5761010080835404028352916020019161116a565b820191906000526020600020905b81548152906001019060200180831161114d57829003601f168201915b50505050509080600401805461117f90612559565b80601f01602080910402602001604051908101604052809291908181526020018280546111ab90612559565b80156111f85780601f106111cd576101008083540402835291602001916111f8565b820191906000526020600020905b8154815290600101906020018083116111db57829003601f168201915b5050505050908060050154908060060154905087565b50565b6000600760003373ffffffffffffffffffffffffffffffffffffffff1673ffffffffffffffffffffffffffffffffffffffff16815260200190815260200160002060009054906101000a900460ff1680156112cd57503373ffffffffffffffffffffffffffffffffffffffff166003600084815260200190815260200160002060020160009054906101000a900473ffffffffffffffffffffffffffffffffffffffff1673ffffffffffffffffffffffffffffffffffffffff16145b61130c576040517f08c379a00000000000000000000000000000000000000000000000000000000081526004016113039061239a565b60405180910390fd5b6000611316610734565b905060008114156113e35761135f6040518060400160405280602081526020017f4e6f206d656d6265722069732063757272656e746c7920617661696c61626c6581525061179c565b6002546003600085815260200190815260200160002060050154106113b7576001600b60008282546113919190612467565b925050819055508260096000600b548152602001908152602001600020819055506113d9565b6113d86040518060600160405280602f8152602001612866602f913961179c565b5b60009150506114b3565b60025460036000858152602001908152602001600020600501541061146f5761140c8184611ab8565b8060036000858152602001908152602001600020600601819055506114656040518060400160405280600e81526020017f4d656d626572207570646174656400000000000000000000000000000000000081525061179c565b60019150506114b3565b6114ad6040518060400160405280601081526020017f4e6f7420656e6f7567682077617374650000000000000000000000000000000081525061179c565b60029150505b919050565b600760003373ffffffffffffffffffffffffffffffffffffffff1673ffffffffffffffffffffffffffffffffffffffff16815260200190815260200160002060009054906101000a900460ff16611544576040517f08c379a000000000000000000000000000000000000000000000000000000000815260040161153b9061235a565b60405180910390fd5b8060036000848152602001908152602001600020600501600082825461156a9190612467565b925050819055505050565b600061158033611835565b156115c0576040517f08c379a00000000000000000000000000000000000000000000000000000000081526004016115b7906122fa565b60405180910390fd5b6000808154809291906115d2906125bc565b91905055506040518060e0016040528085815260200160005481526020013373ffffffffffffffffffffffffffffffffffffffff16815260200184815260200183815260200160008152602001600081525060036000805481526020019081526020016000206000820151816000019080519060200190611654929190611b99565b506020820151816001015560408201518160020160006101000a81548173ffffffffffffffffffffffffffffffffffffffff021916908373ffffffffffffffffffffffffffffffffffffffff16021790555060608201518160030190805190602001906116c2929190611b99565b5060808201518160040190805190602001906116df929190611b99565b5060a0820151816005015560c082015181600601559050506001600560003373ffffffffffffffffffffffffffffffffffffffff1673ffffffffffffffffffffffffffffffffffffffff16815260200190815260200160002060006101000a81548160ff0219169083151502179055506117906040518060400160405280600d81526020017f437573746f6d65722049643a20000000000000000000000000000000000000008152506000546118e8565b60005490509392505050565b611832816040516024016117b09190612167565b6040516020818303038152906040527f41304fac000000000000000000000000000000000000000000000000000000007bffffffffffffffffffffffffffffffffffffffffffffffffffffffff19166020820180517bffffffffffffffffffffffffffffffffffffffffffffffffffffffff8381831617835250505050611ad7565b50565b600061184082611b00565b600560008373ffffffffffffffffffffffffffffffffffffffff1673ffffffffffffffffffffffffffffffffffffffff16815260200190815260200160002060009054906101000a900460ff16806118e15750600660008373ffffffffffffffffffffffffffffffffffffffff1673ffffffffffffffffffffffffffffffffffffffff16815260200190815260200160002060009054906101000a900460ff165b9050919050565b61198082826040516024016118fe929190612189565b6040516020818303038152906040527fb60e72cc000000000000000000000000000000000000000000000000000000007bffffffffffffffffffffffffffffffffffffffffffffffffffffffff19166020820180517bffffffffffffffffffffffffffffffffffffffffffffffffffffffff8381831617835250505050611ad7565b5050565b600060096000600a54815260200190815260200160002054905080600460008481526020019081526020016000206006018190555060006004600084815260200190815260200160002060050160006101000a81548160ff021916908315150217905550816003600083815260200190815260200160002060060181905550611a426040518060400160405280600981526020017f437573746f6d6572200000000000000000000000000000000000000000000000815250826118e8565b611a816040518060400160405280601481526020017f2069732061737369676e6564204d656d62657220000000000000000000000000815250836118e8565b60096000600a548152602001908152602001600020600090556001600a6000828254611aad9190612467565b925050819055505050565b8060046000848152602001908152602001600020600601819055505050565b60008151905060006a636f6e736f6c652e6c6f679050602083016000808483855afa5050505050565b611b9681604051602401611b149190612131565b6040516020818303038152906040527f2c2ecbc2000000000000000000000000000000000000000000000000000000007bffffffffffffffffffffffffffffffffffffffffffffffffffffffff19166020820180517bffffffffffffffffffffffffffffffffffffffffffffffffffffffff8381831617835250505050611ad7565b50565b828054611ba590612559565b90600052602060002090601f016020900481019282611bc75760008555611c0e565b82601f10611be057805160ff1916838001178555611c0e565b82800160010185558215611c0e579182015b82811115611c0d578251825591602001919060010190611bf2565b5b509050611c1b9190611c1f565b5090565b5b80821115611c38576000816000905550600101611c20565b5090565b6000611c4f611c4a846123fa565b6123d5565b905082815260208101848484011115611c6757600080fd5b611c72848285612517565b509392505050565b600081359050611c8981612837565b92915050565b600082601f830112611ca057600080fd5b8135611cb0848260208601611c3c565b91505092915050565b600081359050611cc88161284e565b92915050565b600060208284031215611ce057600080fd5b6000611cee84828501611c7a565b91505092915050565b600080600060608486031215611d0c57600080fd5b600084013567ffffffffffffffff811115611d2657600080fd5b611d3286828701611c8f565b935050602084013567ffffffffffffffff811115611d4f57600080fd5b611d5b86828701611c8f565b925050604084013567ffffffffffffffff811115611d7857600080fd5b611d8486828701611c8f565b9150509250925092565b600080600060608486031215611da357600080fd5b600084013567ffffffffffffffff811115611dbd57600080fd5b611dc986828701611c8f565b9350506020611dda86828701611cb9565b925050604084013567ffffffffffffffff811115611df757600080fd5b611e0386828701611c8f565b9150509250925092565b600060208284031215611e1f57600080fd5b6000611e2d84828501611cb9565b91505092915050565b60008060408385031215611e4957600080fd5b6000611e5785828601611cb9565b925050602083013567ffffffffffffffff811115611e7457600080fd5b611e8085828601611c8f565b9150509250929050565b60008060408385031215611e9d57600080fd5b6000611eab85828601611cb9565b9250506020611ebc85828601611cb9565b9150509250929050565b611ecf816124cf565b82525050565b611ede816124bd565b82525050565b611eed816124e1565b82525050565b6000611efe82612440565b611f08818561244b565b9350611f18818560208601612526565b611f2181612692565b840191505092915050565b6000611f3782612440565b611f41818561245c565b9350611f51818560208601612526565b80840191505092915050565b60008154611f6a81612559565b611f74818661245c565b94506001821660008114611f8f5760018114611fa057611fd3565b60ff19831686528186019350611fd3565b611fa98561242b565b60005b83811015611fcb57815481890152600182019150602081019050611fac565b838801955050505b50505092915050565b6000611fe960198361244b565b9150611ff4826126a3565b602082019050919050565b600061200c602f8361244b565b9150612017826126cc565b604082019050919050565b600061202f60208361244b565b915061203a8261271b565b602082019050919050565b600061205260388361244b565b915061205d82612744565b604082019050919050565b6000612075601b8361244b565b915061208082612793565b602082019050919050565b600061209860198361244b565b91506120a3826127bc565b602082019050919050565b60006120bb60208361244b565b91506120c6826127e5565b602082019050919050565b60006120de601d8361244b565b91506120e98261280e565b602082019050919050565b6120fd8161250d565b82525050565b600061210f8284611f2c565b915081905092915050565b60006121268284611f5d565b915081905092915050565b60006020820190506121466000830184611ed5565b92915050565b60006020820190506121616000830184611ee4565b92915050565b600060208201905081810360008301526121818184611ef3565b905092915050565b600060408201905081810360008301526121a38185611ef3565b90506121b260208301846120f4565b9392505050565b600060e08201905081810360008301526121d3818a611ef3565b90506121e260208301896120f4565b6121ef6040830188611ec6565b81810360608301526122018187611ef3565b905081810360808301526122158186611ef3565b905061222460a08301856120f4565b61223160c08301846120f4565b98975050505050505050565b600060e0820190508181036000830152612257818a611ef3565b905061226660208301896120f4565b6122736040830188611ec6565b81810360608301526122858187611ef3565b905061229460808301866120f4565b6122a160a0830185611ee4565b6122ae60c08301846120f4565b98975050505050505050565b600060208201905081810360008301526122d381611fdc565b9050919050565b600060208201905081810360008301526122f381611fff565b9050919050565b6000602082019050818103600083015261231381612022565b9050919050565b6000602082019050818103600083015261233381612045565b9050919050565b6000602082019050818103600083015261235381612068565b9050919050565b600060208201905081810360008301526123738161208b565b9050919050565b60006020820190508181036000830152612393816120ae565b9050919050565b600060208201905081810360008301526123b3816120d1565b9050919050565b60006020820190506123cf60008301846120f4565b92915050565b60006123df6123f0565b90506123eb828261258b565b919050565b6000604051905090565b600067ffffffffffffffff82111561241557612414612663565b5b61241e82612692565b9050602081019050919050565b60008190508160005260206000209050919050565b600081519050919050565b600082825260208201905092915050565b600081905092915050565b60006124728261250d565b915061247d8361250d565b9250827fffffffffffffffffffffffffffffffffffffffffffffffffffffffffffffffff038211156124b2576124b1612605565b5b828201905092915050565b60006124c8826124ed565b9050919050565b60006124da826124ed565b9050919050565b60008115159050919050565b600073ffffffffffffffffffffffffffffffffffffffff82169050919050565b6000819050919050565b82818337600083830152505050565b60005b83811015612544578082015181840152602081019050612529565b83811115612553576000848401525b50505050565b6000600282049050600182168061257157607f821691505b6020821081141561258557612584612634565b5b50919050565b61259482612692565b810181811067ffffffffffffffff821117156125b3576125b2612663565b5b80604052505050565b60006125c78261250d565b91507fffffffffffffffffffffffffffffffffffffffffffffffffffffffffffffffff8214156125fa576125f9612605565b5b600182019050919050565b7f4e487b7100000000000000000000000000000000000000000000000000000000600052601160045260246000fd5b7f4e487b7100000000000000000000000000000000000000000000000000000000600052602260045260246000fd5b7f4e487b7100000000000000000000000000000000000000000000000000000000600052604160045260246000fd5b6000601f19601f8301169050919050565b7f5f5f5f496e76616c69642063726564656e7469616c735f5f5f00000000000000600082015250565b7f5f5f5f437573746f6d6572206e6f74207265676973746572656420776974682060008201527f74686973206163636f756e745f5f5f0000000000000000000000000000000000602082015250565b7f5f5f5f506c656173652075736520616e6f7468657220616464726573735f5f5f600082015250565b7f5f5f5f506c656173652075736520616e6f7468657220616464726573732e204160008201527f64647265737320697320726567697374657265642e5f5f5f0000000000000000602082015250565b7f5f5f5f4d656d626572206e6f7420726567697374657265645f5f5f0000000000600082015250565b7f5f5f5f4c6f6720696e20746f206164642077617374655f5f5f00000000000000600082015250565b7f5f5f5f4d656d626572206b696e646c79206c6f6767696e2066697273745f5f5f600082015250565b7f5f5f5f4c6f6720696e20746f20636f6c6c6563742077617374655f5f5f000000600082015250565b612840816124bd565b811461284b57600080fd5b50565b6128578161250d565b811461286257600080fd5b5056fe4d656d6265722077696c6c2061737369676e6564206166746572207265616368696e6720746865206d696e2076616ca2646970667358221220b66e7e9a1142f80252d6fcc0973b1ca09de5085431ef5c4e694c2a0215a7e8c964736f6c63430008040033",
  "linkReferences": {},
  "deployedLinkReferences": {}
}