{
  "_format": "hh-sol-artifact-1",
  "contractName": "SWMS",
  "sourceName": "src/backend/contract/SWMS.sol",
  "abi": [
    {
      "inputs": [
        {
          "internalType": "uint256",
          "name": "_customerId",
          "type": "uint256"
        },
        {
          "internalType": "uint256",
          "name": "_weight",
          "type": "uint256"
        }
      ],
      "name": "addWaste",
      "outputs": [],
      "stateMutability": "nonpayable",
      "type": "function"
    },
    {
      "inputs": [],
      "name": "calcPrice",
      "outputs": [
        {
          "internalType": "uint256",
          "name": "",
          "type": "uint256"
        }
      ],
      "stateMutability": "pure",
      "type": "function"
    },
    {
      "inputs": [
        {
          "internalType": "uint256",
          "name": "_customerId",
          "type": "uint256"
        }
      ],
      "name": "collectWaste",
      "outputs": [
        {
          "internalType": "uint256",
          "name": "",
          "type": "uint256"
        }
      ],
      "stateMutability": "nonpayable",
      "type": "function"
    },
    {
      "inputs": [
        {
          "internalType": "address",
          "name": "",
          "type": "address"
        }
      ],
      "name": "customerAddress",
      "outputs": [
        {
          "internalType": "bool",
          "name": "",
          "type": "bool"
        }
      ],
      "stateMutability": "view",
      "type": "function"
    },
    {
      "inputs": [
        {
          "internalType": "uint256",
          "name": "_customerId",
          "type": "uint256"
        }
      ],
      "name": "customerExists",
      "outputs": [
        {
          "internalType": "bool",
          "name": "",
          "type": "bool"
        }
      ],
      "stateMutability": "view",
      "type": "function"
    },
    {
      "inputs": [
        {
          "internalType": "address",
          "name": "",
          "type": "address"
        }
      ],
      "name": "customerLoggedIn",
      "outputs": [
        {
          "internalType": "bool",
          "name": "",
          "type": "bool"
        }
      ],
      "stateMutability": "view",
      "type": "function"
    },
    {
      "inputs": [
        {
          "internalType": "uint256",
          "name": "",
          "type": "uint256"
        }
      ],
      "name": "customers",
      "outputs": [
        {
          "internalType": "string",
          "name": "name",
          "type": "string"
        },
        {
          "internalType": "uint256",
          "name": "customerId",
          "type": "uint256"
        },
        {
          "internalType": "address payable",
          "name": "customer",
          "type": "address"
        },
        {
          "internalType": "string",
          "name": "customerAddress",
          "type": "string"
        },
        {
          "internalType": "string",
          "name": "password",
          "type": "string"
        },
        {
          "internalType": "uint256",
          "name": "totWeight",
          "type": "uint256"
        },
        {
          "components": [
            {
              "internalType": "uint256",
              "name": "weight",
              "type": "uint256"
            },
            {
              "internalType": "uint256",
              "name": "memberId",
              "type": "uint256"
            },
            {
              "internalType": "uint256",
              "name": "customerId",
              "type": "uint256"
            },
            {
              "internalType": "uint256",
              "name": "price",
              "type": "uint256"
            }
          ],
          "internalType": "struct SWMS.Order",
          "name": "curOrder",
          "type": "tuple"
        }
      ],
      "stateMutability": "view",
      "type": "function"
    },
    {
      "inputs": [],
      "name": "findAvailableMember",
      "outputs": [
        {
          "internalType": "uint256",
          "name": "",
          "type": "uint256"
        }
      ],
      "stateMutability": "view",
      "type": "function"
    },
    {
      "inputs": [],
      "name": "firstQueue",
      "outputs": [
        {
          "internalType": "uint256",
          "name": "",
          "type": "uint256"
        }
      ],
      "stateMutability": "view",
      "type": "function"
    },
    {
      "inputs": [
        {
          "internalType": "uint256",
          "name": "_customerId",
          "type": "uint256"
        },
        {
          "internalType": "string",
          "name": "_password",
          "type": "string"
        }
      ],
      "name": "isValidCustomer",
      "outputs": [
        {
          "internalType": "bool",
          "name": "",
          "type": "bool"
        }
      ],
      "stateMutability": "view",
      "type": "function"
    },
    {
      "inputs": [
        {
          "internalType": "uint256",
          "name": "_memberId",
          "type": "uint256"
        },
        {
          "internalType": "string",
          "name": "_password",
          "type": "string"
        }
      ],
      "name": "isValidmember",
      "outputs": [
        {
          "internalType": "bool",
          "name": "",
          "type": "bool"
        }
      ],
      "stateMutability": "view",
      "type": "function"
    },
    {
      "inputs": [],
      "name": "lastQueue",
      "outputs": [
        {
          "internalType": "uint256",
          "name": "",
          "type": "uint256"
        }
      ],
      "stateMutability": "view",
      "type": "function"
    },
    {
      "inputs": [
        {
          "internalType": "uint256",
          "name": "_customerId",
          "type": "uint256"
        },
        {
          "internalType": "string",
          "name": "_password",
          "type": "string"
        }
      ],
      "name": "loginCustomer",
      "outputs": [
        {
          "internalType": "bool",
          "name": "",
          "type": "bool"
        }
      ],
      "stateMutability": "nonpayable",
      "type": "function"
    },
    {
      "inputs": [
        {
          "internalType": "uint256",
          "name": "_memberId",
          "type": "uint256"
        },
        {
          "internalType": "string",
          "name": "_password",
          "type": "string"
        }
      ],
      "name": "loginMember",
      "outputs": [
        {
          "internalType": "bool",
          "name": "",
          "type": "bool"
        }
      ],
      "stateMutability": "nonpayable",
      "type": "function"
    },
    {
      "inputs": [
        {
          "internalType": "address",
          "name": "",
          "type": "address"
        }
      ],
      "name": "memberAddress",
      "outputs": [
        {
          "internalType": "bool",
          "name": "",
          "type": "bool"
        }
      ],
      "stateMutability": "view",
      "type": "function"
    },
    {
      "inputs": [
        {
          "internalType": "uint256",
          "name": "_memberId",
          "type": "uint256"
        }
      ],
      "name": "memberExists",
      "outputs": [
        {
          "internalType": "bool",
          "name": "",
          "type": "bool"
        }
      ],
      "stateMutability": "view",
      "type": "function"
    },
    {
      "inputs": [
        {
          "internalType": "address",
          "name": "",
          "type": "address"
        }
      ],
      "name": "memberLoggedIn",
      "outputs": [
        {
          "internalType": "bool",
          "name": "",
          "type": "bool"
        }
      ],
      "stateMutability": "view",
      "type": "function"
    },
    {
      "inputs": [
        {
          "internalType": "uint256",
          "name": "",
          "type": "uint256"
        }
      ],
      "name": "members",
      "outputs": [
        {
          "internalType": "string",
          "name": "name",
          "type": "string"
        },
        {
          "internalType": "uint256",
          "name": "memberId",
          "type": "uint256"
        },
        {
          "internalType": "address payable",
          "name": "member",
          "type": "address"
        },
        {
          "internalType": "string",
          "name": "password",
          "type": "string"
        },
        {
          "internalType": "uint256",
          "name": "contactNumber",
          "type": "uint256"
        },
        {
          "internalType": "bool",
          "name": "isAvailable",
          "type": "bool"
        },
        {
          "internalType": "uint256",
          "name": "customerId",
          "type": "uint256"
        }
      ],
      "stateMutability": "view",
      "type": "function"
    },
    {
      "inputs": [
        {
          "internalType": "uint256",
          "name": "",
          "type": "uint256"
        }
      ],
      "name": "pastOrders",
      "outputs": [
        {
          "internalType": "uint256",
          "name": "weight",
          "type": "uint256"
        },
        {
          "internalType": "uint256",
          "name": "memberId",
          "type": "uint256"
        },
        {
          "internalType": "uint256",
          "name": "customerId",
          "type": "uint256"
        },
        {
          "internalType": "uint256",
          "name": "price",
          "type": "uint256"
        }
      ],
      "stateMutability": "view",
      "type": "function"
    },
    {
      "inputs": [
        {
          "internalType": "uint256",
          "name": "eths",
          "type": "uint256"
        }
      ],
      "name": "payCustomer",
      "outputs": [],
      "stateMutability": "nonpayable",
      "type": "function"
    },
    {
      "inputs": [
        {
          "internalType": "string",
          "name": "_name",
          "type": "string"
        },
        {
          "internalType": "uint256",
          "name": "_contactNumber",
          "type": "uint256"
        },
        {
          "internalType": "string",
          "name": "_password",
          "type": "string"
        }
      ],
      "name": "registerCommittee",
      "outputs": [
        {
          "internalType": "uint256",
          "name": "",
          "type": "uint256"
        }
      ],
      "stateMutability": "nonpayable",
      "type": "function"
    },
    {
      "inputs": [
        {
          "internalType": "string",
          "name": "_name",
          "type": "string"
        },
        {
          "internalType": "string",
          "name": "_customerAddress",
          "type": "string"
        },
        {
          "internalType": "string",
          "name": "_password",
          "type": "string"
        }
      ],
      "name": "registerCustomer",
      "outputs": [
        {
          "internalType": "uint256",
          "name": "",
          "type": "uint256"
        }
      ],
      "stateMutability": "nonpayable",
      "type": "function"
    },
    {
      "inputs": [],
      "name": "totalCustomers",
      "outputs": [
        {
          "internalType": "uint256",
          "name": "",
          "type": "uint256"
        }
      ],
      "stateMutability": "view",
      "type": "function"
    },
    {
      "inputs": [],
      "name": "totalMembers",
      "outputs": [
        {
          "internalType": "uint256",
          "name": "",
          "type": "uint256"
        }
      ],
      "stateMutability": "view",
      "type": "function"
    },
    {
      "inputs": [
        {
          "internalType": "uint256",
          "name": "_memberId",
          "type": "uint256"
        },
        {
          "internalType": "uint256",
          "name": "_customerId",
          "type": "uint256"
        }
      ],
      "name": "updateWasteCollected",
      "outputs": [],
      "stateMutability": "nonpayable",
      "type": "function"
    }
  ],
  "bytecode": "0x60806040526101f46002556001600b556000600c5534801561002057600080fd5b50612bd1806100306000396000f3fe608060405234801561001057600080fd5b50600436106101735760003560e01c80635e8bcda9116100de578063a4800c2e11610097578063c5df288211610071578063c5df2882146104f5578063d76906ac14610525578063d98c440814610541578063f8e66a4d1461055f57610173565b8063a4800c2e14610473578063c0abda2a146104a3578063c4cb2214146104d957610173565b80635e8bcda9146103655780636bdcc8ab146103955780636cd69bbd146103c557806376e92559146103f55780637c17c41c14610413578063987cc11d1461044357610173565b8063295d676611610130578063295d6766146102775780632e048f60146102955780634e1a5d12146102c55780635135fb73146102f5578063547c3648146103115780635daf08ca1461032f57610173565b8063163388ae146101785780631866dcfb146101a85780631e0fd101146101c65780631e7130d7146101f657806320852a8c14610229578063295ca7fb14610259575b600080fd5b610192600480360381019061018d919061206a565b61058f565b60405161019f919061240d565b60405180910390f35b6101b061064c565b6040516101bd919061267c565b60405180910390f35b6101e060048036038101906101db9190611f2b565b610652565b6040516101ed919061240d565b60405180910390f35b610210600480360381019061020b919061206a565b610672565b6040516102209493929190612697565b60405180910390f35b610243600480360381019061023e9190612093565b6106b2565b604051610250919061240d565b60405180910390f35b6102616107e5565b60405161026e919061267c565b60405180910390f35b61027f6107eb565b60405161028c919061267c565b60405180910390f35b6102af60048036038101906102aa9190612093565b610851565b6040516102bc919061240d565b60405180910390f35b6102df60048036038101906102da9190611feb565b6108d0565b6040516102ec919061267c565b60405180910390f35b61030f600480360381019061030a91906120e7565b610b53565b005b610319610d8a565b604051610326919061267c565b60405180910390f35b6103496004803603810190610344919061206a565b610d90565b60405161035c97969594939291906124ff565b60405180910390f35b61037f600480360381019061037a9190611f2b565b610f0f565b60405161038c919061240d565b60405180910390f35b6103af60048036038101906103aa919061206a565b610f2f565b6040516103bc919061240d565b60405180910390f35b6103df60048036038101906103da9190612093565b610fe2565b6040516103ec919061240d565b60405180910390f35b6103fd611115565b60405161040a919061267c565b60405180910390f35b61042d60048036038101906104289190612093565b61111b565b60405161043a919061240d565b60405180910390f35b61045d60048036038101906104589190611f2b565b61119a565b60405161046a919061240d565b60405180910390f35b61048d60048036038101906104889190611f2b565b6111ba565b60405161049a919061240d565b60405180910390f35b6104bd60048036038101906104b8919061206a565b6111da565b6040516104d0979695949392919061247a565b60405180910390f35b6104f360048036038101906104ee919061206a565b611406565b005b61050f600480360381019061050a919061206a565b611409565b60405161051c919061267c565b60405180910390f35b61053f600480360381019061053a91906120e7565b6116b9565b005b610549611779565b604051610556919061267c565b60405180910390f35b61057960048036038101906105749190611f54565b611782565b604051610586919061267c565b60405180910390f35b60003373ffffffffffffffffffffffffffffffffffffffff166004600084815260200190815260200160002060020160009054906101000a900473ffffffffffffffffffffffffffffffffffffffff1673ffffffffffffffffffffffffffffffffffffffff1614156106045760019050610647565b6106426040518060400160405280601781526020017f437573746f6d6572206e6f7420726567697374657265640000000000000000008152506119f6565b600090505b919050565b60005481565b60066020528060005260406000206000915054906101000a900460ff1681565b6003818154811061068257600080fd5b90600052602060002090600402016000915090508060000154908060010154908060020154908060030154905084565b60006106bd83610f2f565b6106fc576040517f08c379a00000000000000000000000000000000000000000000000000000000081526004016106f3906125fc565b60405180910390fd5b6107068383610851565b610745576040517f08c379a000000000000000000000000000000000000000000000000000000000815260040161073c9061257c565b60405180910390fd5b6107836040518060400160405280601081526020017f4c6f67696e205375636365737366756c000000000000000000000000000000008152506119f6565b6001600960003373ffffffffffffffffffffffffffffffffffffffff1673ffffffffffffffffffffffffffffffffffffffff16815260200190815260200160002060006101000a81548160ff0219169083151502179055506001905092915050565b600c5481565b600080600190505b600154811161084857600115156005600083815260200190815260200160002060050160009054906101000a900460ff1615151415610835578091505061084e565b8080610840906128c3565b9150506107f3565b50600090505b90565b60008160405160200161086491906123c4565b60405160208183030381529060405280519060200120600560008581526020019081526020016000206003016040516020016108a091906123db565b6040516020818303038152906040528051906020012014156108c557600190506108ca565b600090505b92915050565b60006108db33611a8f565b1561091b576040517f08c379a0000000000000000000000000000000000000000000000000000000008152600401610912906125dc565b60405180910390fd5b6001600081548092919061092e906128c3565b91905055506040518060e0016040528085815260200160015481526020013373ffffffffffffffffffffffffffffffffffffffff168152602001838152602001848152602001600115158152602001600081525060056000600154815260200190815260200160002060008201518160000190805190602001906109b3929190611df6565b506020820151816001015560408201518160020160006101000a81548173ffffffffffffffffffffffffffffffffffffffff021916908373ffffffffffffffffffffffffffffffffffffffff1602179055506060820151816003019080519060200190610a21929190611df6565b506080820151816004015560a08201518160050160006101000a81548160ff02191690831515021790555060c082015181600601559050506001600760003373ffffffffffffffffffffffffffffffffffffffff1673ffffffffffffffffffffffffffffffffffffffff16815260200190815260200160002060006101000a81548160ff021916908315150217905550610af26040518060400160405280600b81526020017f4d656d6265722049643a20000000000000000000000000000000000000000000815250600154611b42565b600b54600c5410610b4757610b3b6040518060400160405280600781526020017f496e2069662e2e000000000000000000000000000000000000000000000000008152506119f6565b610b46600154611bde565b5b60015490509392505050565b600960003373ffffffffffffffffffffffffffffffffffffffff1673ffffffffffffffffffffffffffffffffffffffff16815260200190815260200160002060009054906101000a900460ff16610bdf576040517f08c379a0000000000000000000000000000000000000000000000000000000008152600401610bd69061263c565b60405180910390fd5b6000610be9611779565b905060036040518060800160405280600460008681526020019081526020016000206006016000015481526020018581526020018481526020018381525090806001815401808255809150506001900390600052602060002090600402016000909190919091506000820151816000015560208201518160010155604082015181600201556060820151816003015550506004600083815260200190815260200160002060060160000154600460008481526020019081526020016000206005016000828254610cb9919061276e565b92505081905550604051806080016040528060008152602001600081526020018381526020016000815250600460008481526020019081526020016000206006016000820151816000015560208201518160010155604082015181600201556060820151816003015590505060016005600085815260200190815260200160002060050160006101000a81548160ff02191690831515021790555060006005600085815260200190815260200160002060060181905550600b54600c5410610d8557610d8483611bde565b5b505050565b600b5481565b6005602052806000526040600020600091509050806000018054610db390612860565b80601f0160208091040260200160405190810160405280929190818152602001828054610ddf90612860565b8015610e2c5780601f10610e0157610100808354040283529160200191610e2c565b820191906000526020600020905b815481529060010190602001808311610e0f57829003601f168201915b5050505050908060010154908060020160009054906101000a900473ffffffffffffffffffffffffffffffffffffffff1690806003018054610e6d90612860565b80601f0160208091040260200160405190810160405280929190818152602001828054610e9990612860565b8015610ee65780601f10610ebb57610100808354040283529160200191610ee6565b820191906000526020600020905b815481529060010190602001808311610ec957829003601f168201915b5050505050908060040154908060050160009054906101000a900460ff16908060060154905087565b60096020528060005260406000206000915054906101000a900460ff1681565b60003373ffffffffffffffffffffffffffffffffffffffff166005600084815260200190815260200160002060020160009054906101000a900473ffffffffffffffffffffffffffffffffffffffff1673ffffffffffffffffffffffffffffffffffffffff161415610fa45760019050610fdd565b6000600560008481526020019081526020016000206000018054610fc790612860565b90501115610fd85760019050610fdd565b600090505b919050565b6000610fed8361058f565b61102c576040517f08c379a00000000000000000000000000000000000000000000000000000000081526004016110239061259c565b60405180910390fd5b611036838361111b565b611075576040517f08c379a000000000000000000000000000000000000000000000000000000000815260040161106c9061257c565b60405180910390fd5b6110b36040518060400160405280601181526020017f5375636365737366756c206c6f67696e210000000000000000000000000000008152506119f6565b6001600860003373ffffffffffffffffffffffffffffffffffffffff1673ffffffffffffffffffffffffffffffffffffffff16815260200190815260200160002060006101000a81548160ff0219169083151502179055506001905092915050565b60015481565b60008160405160200161112e91906123c4565b604051602081830303815290604052805190602001206004600085815260200190815260200160002060040160405160200161116a91906123db565b60405160208183030381529060405280519060200120141561118f5760019050611194565b600090505b92915050565b60076020528060005260406000206000915054906101000a900460ff1681565b60086020528060005260406000206000915054906101000a900460ff1681565b60046020528060005260406000206000915090508060000180546111fd90612860565b80601f016020809104026020016040519081016040528092919081815260200182805461122990612860565b80156112765780601f1061124b57610100808354040283529160200191611276565b820191906000526020600020905b81548152906001019060200180831161125957829003601f168201915b5050505050908060010154908060020160009054906101000a900473ffffffffffffffffffffffffffffffffffffffff16908060030180546112b790612860565b80601f01602080910402602001604051908101604052809291908181526020018280546112e390612860565b80156113305780601f1061130557610100808354040283529160200191611330565b820191906000526020600020905b81548152906001019060200180831161131357829003601f168201915b50505050509080600401805461134590612860565b80601f016020809104026020016040519081016040528092919081815260200182805461137190612860565b80156113be5780601f10611393576101008083540402835291602001916113be565b820191906000526020600020905b8154815290600101906020018083116113a157829003601f168201915b50505050509080600501549080600601604051806080016040529081600082015481526020016001820154815260200160028201548152602001600382015481525050905087565b50565b6000600860003373ffffffffffffffffffffffffffffffffffffffff1673ffffffffffffffffffffffffffffffffffffffff16815260200190815260200160002060009054906101000a900460ff1680156114c557503373ffffffffffffffffffffffffffffffffffffffff166004600084815260200190815260200160002060020160009054906101000a900473ffffffffffffffffffffffffffffffffffffffff1673ffffffffffffffffffffffffffffffffffffffff16145b611504576040517f08c379a00000000000000000000000000000000000000000000000000000000081526004016114fb9061265c565b60405180910390fd5b600061150e6107eb565b905060008114156115de576115576040518060400160405280602081526020017f4e6f206d656d6265722069732063757272656e746c7920617661696c61626c658152506119f6565b6002546004600085815260200190815260200160002060060160000154106115b2576001600c600082825461158c919061276e565b9250508190555082600a6000600c548152602001908152602001600020819055506115d4565b6115d36040518060600160405280602f8152602001612b6d602f91396119f6565b5b60009150506116b4565b6002546004600085815260200190815260200160002060060160000154106116705761160a8184611d15565b8060046000858152602001908152602001600020600601600101819055506116666040518060400160405280600e81526020017f4d656d62657220757064617465640000000000000000000000000000000000008152506119f6565b60019150506116b4565b6116ae6040518060400160405280601081526020017f4e6f7420656e6f756768207761737465000000000000000000000000000000008152506119f6565b60029150505b919050565b600860003373ffffffffffffffffffffffffffffffffffffffff1673ffffffffffffffffffffffffffffffffffffffff16815260200190815260200160002060009054906101000a900460ff16611745576040517f08c379a000000000000000000000000000000000000000000000000000000000815260040161173c9061261c565b60405180910390fd5b8060046000848152602001908152602001600020600601600001600082825461176e919061276e565b925050819055505050565b6000600a905090565b600061178d33611a8f565b156117cd576040517f08c379a00000000000000000000000000000000000000000000000000000000081526004016117c4906125bc565b60405180910390fd5b6000808154809291906117df906128c3565b91905055506040518060e0016040528085815260200160005481526020013373ffffffffffffffffffffffffffffffffffffffff16815260200184815260200183815260200160008152602001604051806080016040528060008152602001600081526020016000548152602001600081525081525060046000805481526020019081526020016000206000820151816000019080519060200190611885929190611df6565b506020820151816001015560408201518160020160006101000a81548173ffffffffffffffffffffffffffffffffffffffff021916908373ffffffffffffffffffffffffffffffffffffffff16021790555060608201518160030190805190602001906118f3929190611df6565b506080820151816004019080519060200190611910929190611df6565b5060a0820151816005015560c0820151816006016000820151816000015560208201518160010155604082015181600201556060820151816003015550509050506001600660003373ffffffffffffffffffffffffffffffffffffffff1673ffffffffffffffffffffffffffffffffffffffff16815260200190815260200160002060006101000a81548160ff0219169083151502179055506119ea6040518060400160405280600d81526020017f437573746f6d65722049643a2000000000000000000000000000000000000000815250600054611b42565b60005490509392505050565b611a8c81604051602401611a0a9190612428565b6040516020818303038152906040527f41304fac000000000000000000000000000000000000000000000000000000007bffffffffffffffffffffffffffffffffffffffffffffffffffffffff19166020820180517bffffffffffffffffffffffffffffffffffffffffffffffffffffffff8381831617835250505050611d34565b50565b6000611a9a82611d5d565b600660008373ffffffffffffffffffffffffffffffffffffffff1673ffffffffffffffffffffffffffffffffffffffff16815260200190815260200160002060009054906101000a900460ff1680611b3b5750600760008373ffffffffffffffffffffffffffffffffffffffff1673ffffffffffffffffffffffffffffffffffffffff16815260200190815260200160002060009054906101000a900460ff165b9050919050565b611bda8282604051602401611b5892919061244a565b6040516020818303038152906040527fb60e72cc000000000000000000000000000000000000000000000000000000007bffffffffffffffffffffffffffffffffffffffffffffffffffffffff19166020820180517bffffffffffffffffffffffffffffffffffffffffffffffffffffffff8381831617835250505050611d34565b5050565b6000600a6000600b54815260200190815260200160002054905080600560008481526020019081526020016000206006018190555060006005600084815260200190815260200160002060050160006101000a81548160ff021916908315150217905550816004600083815260200190815260200160002060060160010181905550611c9f6040518060400160405280600981526020017f437573746f6d657220000000000000000000000000000000000000000000000081525082611b42565b611cde6040518060400160405280601481526020017f2069732061737369676e6564204d656d6265722000000000000000000000000081525083611b42565b600a6000600b548152602001908152602001600020600090556001600b6000828254611d0a919061276e565b925050819055505050565b8060056000848152602001908152602001600020600601819055505050565b60008151905060006a636f6e736f6c652e6c6f679050602083016000808483855afa5050505050565b611df381604051602401611d7191906123f2565b6040516020818303038152906040527f2c2ecbc2000000000000000000000000000000000000000000000000000000007bffffffffffffffffffffffffffffffffffffffffffffffffffffffff19166020820180517bffffffffffffffffffffffffffffffffffffffffffffffffffffffff8381831617835250505050611d34565b50565b828054611e0290612860565b90600052602060002090601f016020900481019282611e245760008555611e6b565b82601f10611e3d57805160ff1916838001178555611e6b565b82800160010185558215611e6b579182015b82811115611e6a578251825591602001919060010190611e4f565b5b509050611e789190611e7c565b5090565b5b80821115611e95576000816000905550600101611e7d565b5090565b6000611eac611ea784612701565b6126dc565b905082815260208101848484011115611ec457600080fd5b611ecf84828561281e565b509392505050565b600081359050611ee681612b3e565b92915050565b600082601f830112611efd57600080fd5b8135611f0d848260208601611e99565b91505092915050565b600081359050611f2581612b55565b92915050565b600060208284031215611f3d57600080fd5b6000611f4b84828501611ed7565b91505092915050565b600080600060608486031215611f6957600080fd5b600084013567ffffffffffffffff811115611f8357600080fd5b611f8f86828701611eec565b935050602084013567ffffffffffffffff811115611fac57600080fd5b611fb886828701611eec565b925050604084013567ffffffffffffffff811115611fd557600080fd5b611fe186828701611eec565b9150509250925092565b60008060006060848603121561200057600080fd5b600084013567ffffffffffffffff81111561201a57600080fd5b61202686828701611eec565b935050602061203786828701611f16565b925050604084013567ffffffffffffffff81111561205457600080fd5b61206086828701611eec565b9150509250925092565b60006020828403121561207c57600080fd5b600061208a84828501611f16565b91505092915050565b600080604083850312156120a657600080fd5b60006120b485828601611f16565b925050602083013567ffffffffffffffff8111156120d157600080fd5b6120dd85828601611eec565b9150509250929050565b600080604083850312156120fa57600080fd5b600061210885828601611f16565b925050602061211985828601611f16565b9150509250929050565b61212c816127d6565b82525050565b61213b816127c4565b82525050565b61214a816127e8565b82525050565b600061215b82612747565b6121658185612752565b935061217581856020860161282d565b61217e81612999565b840191505092915050565b600061219482612747565b61219e8185612763565b93506121ae81856020860161282d565b80840191505092915050565b600081546121c781612860565b6121d18186612763565b945060018216600081146121ec57600181146121fd57612230565b60ff19831686528186019350612230565b61220685612732565b60005b8381101561222857815481890152600182019150602081019050612209565b838801955050505b50505092915050565b6000612246601983612752565b9150612251826129aa565b602082019050919050565b6000612269602f83612752565b9150612274826129d3565b604082019050919050565b600061228c602083612752565b915061229782612a22565b602082019050919050565b60006122af603883612752565b91506122ba82612a4b565b604082019050919050565b60006122d2601b83612752565b91506122dd82612a9a565b602082019050919050565b60006122f5601983612752565b915061230082612ac3565b602082019050919050565b6000612318602083612752565b915061232382612aec565b602082019050919050565b600061233b601d83612752565b915061234682612b15565b602082019050919050565b60808201600082015161236760008501826123a6565b50602082015161237a60208501826123a6565b50604082015161238d60408501826123a6565b5060608201516123a060608501826123a6565b50505050565b6123af81612814565b82525050565b6123be81612814565b82525050565b60006123d08284612189565b915081905092915050565b60006123e782846121ba565b915081905092915050565b60006020820190506124076000830184612132565b92915050565b60006020820190506124226000830184612141565b92915050565b600060208201905081810360008301526124428184612150565b905092915050565b600060408201905081810360008301526124648185612150565b905061247360208301846123b5565b9392505050565b6000610140820190508181036000830152612495818a612150565b90506124a460208301896123b5565b6124b16040830188612123565b81810360608301526124c38187612150565b905081810360808301526124d78186612150565b90506124e660a08301856123b5565b6124f360c0830184612351565b98975050505050505050565b600060e0820190508181036000830152612519818a612150565b905061252860208301896123b5565b6125356040830188612123565b81810360608301526125478187612150565b905061255660808301866123b5565b61256360a0830185612141565b61257060c08301846123b5565b98975050505050505050565b6000602082019050818103600083015261259581612239565b9050919050565b600060208201905081810360008301526125b58161225c565b9050919050565b600060208201905081810360008301526125d58161227f565b9050919050565b600060208201905081810360008301526125f5816122a2565b9050919050565b60006020820190508181036000830152612615816122c5565b9050919050565b60006020820190508181036000830152612635816122e8565b9050919050565b600060208201905081810360008301526126558161230b565b9050919050565b600060208201905081810360008301526126758161232e565b9050919050565b600060208201905061269160008301846123b5565b92915050565b60006080820190506126ac60008301876123b5565b6126b960208301866123b5565b6126c660408301856123b5565b6126d360608301846123b5565b95945050505050565b60006126e66126f7565b90506126f28282612892565b919050565b6000604051905090565b600067ffffffffffffffff82111561271c5761271b61296a565b5b61272582612999565b9050602081019050919050565b60008190508160005260206000209050919050565b600081519050919050565b600082825260208201905092915050565b600081905092915050565b600061277982612814565b915061278483612814565b9250827fffffffffffffffffffffffffffffffffffffffffffffffffffffffffffffffff038211156127b9576127b861290c565b5b828201905092915050565b60006127cf826127f4565b9050919050565b60006127e1826127f4565b9050919050565b60008115159050919050565b600073ffffffffffffffffffffffffffffffffffffffff82169050919050565b6000819050919050565b82818337600083830152505050565b60005b8381101561284b578082015181840152602081019050612830565b8381111561285a576000848401525b50505050565b6000600282049050600182168061287857607f821691505b6020821081141561288c5761288b61293b565b5b50919050565b61289b82612999565b810181811067ffffffffffffffff821117156128ba576128b961296a565b5b80604052505050565b60006128ce82612814565b91507fffffffffffffffffffffffffffffffffffffffffffffffffffffffffffffffff8214156129015761290061290c565b5b600182019050919050565b7f4e487b7100000000000000000000000000000000000000000000000000000000600052601160045260246000fd5b7f4e487b7100000000000000000000000000000000000000000000000000000000600052602260045260246000fd5b7f4e487b7100000000000000000000000000000000000000000000000000000000600052604160045260246000fd5b6000601f19601f8301169050919050565b7f5f5f5f496e76616c69642063726564656e7469616c735f5f5f00000000000000600082015250565b7f5f5f5f437573746f6d6572206e6f74207265676973746572656420776974682060008201527f74686973206163636f756e745f5f5f0000000000000000000000000000000000602082015250565b7f5f5f5f506c656173652075736520616e6f7468657220616464726573735f5f5f600082015250565b7f5f5f5f506c656173652075736520616e6f7468657220616464726573732e204160008201527f64647265737320697320726567697374657265642e5f5f5f0000000000000000602082015250565b7f5f5f5f4d656d626572206e6f7420726567697374657265645f5f5f0000000000600082015250565b7f5f5f5f4c6f6720696e20746f206164642077617374655f5f5f00000000000000600082015250565b7f5f5f5f4d656d626572206b696e646c79206c6f6767696e2066697273745f5f5f600082015250565b7f5f5f5f4c6f6720696e20746f20636f6c6c6563742077617374655f5f5f000000600082015250565b612b47816127c4565b8114612b5257600080fd5b50565b612b5e81612814565b8114612b6957600080fd5b5056fe4d656d6265722077696c6c2061737369676e6564206166746572207265616368696e6720746865206d696e2076616ca2646970667358221220c27d5b3b30ab554400f17b68fc74e86e876f5e8a54f245bd179d5f98f356bad464736f6c63430008040033",
  "linkReferences": {},
  "deployedLinkReferences": {}
}