{
  "_format": "hh-sol-artifact-1",
  "contractName": "SWMS",
  "sourceName": "src/backend/contract/SWMS.sol",
  "abi": [
    {
      "anonymous": false,
      "inputs": [
        {
          "indexed": false,
          "internalType": "uint256",
          "name": "memberId",
          "type": "uint256"
        },
        {
          "indexed": false,
          "internalType": "string",
          "name": "reason",
          "type": "string"
        }
      ],
      "name": "AppointedMember",
      "type": "event"
    },
    {
      "inputs": [
        {
          "internalType": "uint256",
          "name": "_customerId",
          "type": "uint256"
        },
        {
          "internalType": "uint256",
          "name": "_weight",
          "type": "uint256"
        }
      ],
      "name": "addWaste",
      "outputs": [],
      "stateMutability": "nonpayable",
      "type": "function"
    },
    {
      "inputs": [
        {
          "internalType": "uint256",
          "name": "_customerId",
          "type": "uint256"
        }
      ],
      "name": "calcPrice",
      "outputs": [
        {
          "internalType": "uint256",
          "name": "",
          "type": "uint256"
        }
      ],
      "stateMutability": "nonpayable",
      "type": "function"
    },
    {
      "inputs": [
        {
          "internalType": "uint256",
          "name": "_customerId",
          "type": "uint256"
        }
      ],
      "name": "collectWaste",
      "outputs": [
        {
          "internalType": "uint256",
          "name": "",
          "type": "uint256"
        }
      ],
      "stateMutability": "nonpayable",
      "type": "function"
    },
    {
      "inputs": [
        {
          "internalType": "address",
          "name": "",
          "type": "address"
        }
      ],
      "name": "customerAddress",
      "outputs": [
        {
          "internalType": "bool",
          "name": "",
          "type": "bool"
        }
      ],
      "stateMutability": "view",
      "type": "function"
    },
    {
      "inputs": [
        {
          "internalType": "address",
          "name": "",
          "type": "address"
        }
      ],
      "name": "customerLoggedIn",
      "outputs": [
        {
          "internalType": "bool",
          "name": "",
          "type": "bool"
        }
      ],
      "stateMutability": "view",
      "type": "function"
    },
    {
      "inputs": [
        {
          "internalType": "uint256",
          "name": "",
          "type": "uint256"
        }
      ],
      "name": "customers",
      "outputs": [
        {
          "internalType": "string",
          "name": "name",
          "type": "string"
        },
        {
          "internalType": "uint256",
          "name": "customerId",
          "type": "uint256"
        },
        {
          "internalType": "address payable",
          "name": "customer",
          "type": "address"
        },
        {
          "internalType": "string",
          "name": "customerAddress",
          "type": "string"
        },
        {
          "internalType": "string",
          "name": "password",
          "type": "string"
        },
        {
          "internalType": "uint256",
          "name": "totWeight",
          "type": "uint256"
        },
        {
          "components": [
            {
              "internalType": "uint256",
              "name": "weight",
              "type": "uint256"
            },
            {
              "internalType": "uint256",
              "name": "memberId",
              "type": "uint256"
            },
            {
              "internalType": "uint256",
              "name": "customerId",
              "type": "uint256"
            },
            {
              "internalType": "uint256",
              "name": "price",
              "type": "uint256"
            }
          ],
          "internalType": "struct SWMS.Order",
          "name": "curOrder",
          "type": "tuple"
        }
      ],
      "stateMutability": "view",
      "type": "function"
    },
    {
      "inputs": [
        {
          "internalType": "uint256",
          "name": "",
          "type": "uint256"
        }
      ],
      "name": "ethPerGram",
      "outputs": [
        {
          "internalType": "uint256",
          "name": "",
          "type": "uint256"
        }
      ],
      "stateMutability": "view",
      "type": "function"
    },
    {
      "inputs": [],
      "name": "findAvailableMember",
      "outputs": [
        {
          "internalType": "uint256",
          "name": "",
          "type": "uint256"
        }
      ],
      "stateMutability": "view",
      "type": "function"
    },
    {
      "inputs": [],
      "name": "firstQueue",
      "outputs": [
        {
          "internalType": "uint256",
          "name": "",
          "type": "uint256"
        }
      ],
      "stateMutability": "view",
      "type": "function"
    },
    {
      "inputs": [
        {
          "internalType": "uint256",
          "name": "_customerId",
          "type": "uint256"
        }
      ],
      "name": "getCurOrderPrice",
      "outputs": [
        {
          "internalType": "uint256",
          "name": "",
          "type": "uint256"
        }
      ],
      "stateMutability": "view",
      "type": "function"
    },
    {
      "inputs": [],
      "name": "getPastOrderLength",
      "outputs": [
        {
          "internalType": "uint256",
          "name": "",
          "type": "uint256"
        }
      ],
      "stateMutability": "view",
      "type": "function"
    },
    {
      "inputs": [],
      "name": "lastQueue",
      "outputs": [
        {
          "internalType": "uint256",
          "name": "",
          "type": "uint256"
        }
      ],
      "stateMutability": "view",
      "type": "function"
    },
    {
      "inputs": [
        {
          "internalType": "uint256",
          "name": "_customerId",
          "type": "uint256"
        },
        {
          "internalType": "string",
          "name": "_password",
          "type": "string"
        }
      ],
      "name": "loginCustomer",
      "outputs": [
        {
          "internalType": "bool",
          "name": "",
          "type": "bool"
        }
      ],
      "stateMutability": "nonpayable",
      "type": "function"
    },
    {
      "inputs": [
        {
          "internalType": "uint256",
          "name": "_memberId",
          "type": "uint256"
        },
        {
          "internalType": "string",
          "name": "_password",
          "type": "string"
        }
      ],
      "name": "loginMember",
      "outputs": [
        {
          "internalType": "bool",
          "name": "",
          "type": "bool"
        }
      ],
      "stateMutability": "nonpayable",
      "type": "function"
    },
    {
      "inputs": [
        {
          "internalType": "address",
          "name": "",
          "type": "address"
        }
      ],
      "name": "memberAddress",
      "outputs": [
        {
          "internalType": "bool",
          "name": "",
          "type": "bool"
        }
      ],
      "stateMutability": "view",
      "type": "function"
    },
    {
      "inputs": [
        {
          "internalType": "address",
          "name": "",
          "type": "address"
        }
      ],
      "name": "memberLoggedIn",
      "outputs": [
        {
          "internalType": "bool",
          "name": "",
          "type": "bool"
        }
      ],
      "stateMutability": "view",
      "type": "function"
    },
    {
      "inputs": [
        {
          "internalType": "uint256",
          "name": "",
          "type": "uint256"
        }
      ],
      "name": "members",
      "outputs": [
        {
          "internalType": "string",
          "name": "name",
          "type": "string"
        },
        {
          "internalType": "uint256",
          "name": "memberId",
          "type": "uint256"
        },
        {
          "internalType": "address payable",
          "name": "member",
          "type": "address"
        },
        {
          "internalType": "string",
          "name": "password",
          "type": "string"
        },
        {
          "internalType": "uint256",
          "name": "contactNumber",
          "type": "uint256"
        },
        {
          "internalType": "bool",
          "name": "isAvailable",
          "type": "bool"
        },
        {
          "internalType": "uint256",
          "name": "customerId",
          "type": "uint256"
        }
      ],
      "stateMutability": "view",
      "type": "function"
    },
    {
      "inputs": [
        {
          "internalType": "uint256",
          "name": "",
          "type": "uint256"
        }
      ],
      "name": "pastOrders",
      "outputs": [
        {
          "internalType": "uint256",
          "name": "weight",
          "type": "uint256"
        },
        {
          "internalType": "uint256",
          "name": "memberId",
          "type": "uint256"
        },
        {
          "internalType": "uint256",
          "name": "customerId",
          "type": "uint256"
        },
        {
          "internalType": "uint256",
          "name": "price",
          "type": "uint256"
        }
      ],
      "stateMutability": "view",
      "type": "function"
    },
    {
      "inputs": [
        {
          "internalType": "uint256",
          "name": "_memberId",
          "type": "uint256"
        },
        {
          "internalType": "uint256",
          "name": "_customerId",
          "type": "uint256"
        }
      ],
      "name": "payCustomer",
      "outputs": [],
      "stateMutability": "payable",
      "type": "function"
    },
    {
      "inputs": [
        {
          "internalType": "string",
          "name": "_name",
          "type": "string"
        },
        {
          "internalType": "uint256",
          "name": "_contactNumber",
          "type": "uint256"
        },
        {
          "internalType": "string",
          "name": "_password",
          "type": "string"
        }
      ],
      "name": "registerCommittee",
      "outputs": [
        {
          "internalType": "uint256",
          "name": "",
          "type": "uint256"
        }
      ],
      "stateMutability": "nonpayable",
      "type": "function"
    },
    {
      "inputs": [
        {
          "internalType": "string",
          "name": "_name",
          "type": "string"
        },
        {
          "internalType": "string",
          "name": "_customerAddress",
          "type": "string"
        },
        {
          "internalType": "string",
          "name": "_password",
          "type": "string"
        }
      ],
      "name": "registerCustomer",
      "outputs": [
        {
          "internalType": "uint256",
          "name": "",
          "type": "uint256"
        }
      ],
      "stateMutability": "nonpayable",
      "type": "function"
    },
    {
      "inputs": [],
      "name": "totalCustomers",
      "outputs": [
        {
          "internalType": "uint256",
          "name": "",
          "type": "uint256"
        }
      ],
      "stateMutability": "view",
      "type": "function"
    },
    {
      "inputs": [],
      "name": "totalMembers",
      "outputs": [
        {
          "internalType": "uint256",
          "name": "",
          "type": "uint256"
        }
      ],
      "stateMutability": "view",
      "type": "function"
    }
  ],
  "bytecode": "0x60806040526101f46002556001600b556000600c556040518060800160405280662386f26fc1000066ffffffffffffff168152602001662aa1efb94e000066ffffffffffffff16815260200166470de4df82000066ffffffffffffff16815260200166354a6ba7a1800066ffffffffffffff16815250600d906004620000879291906200009c565b503480156200009557600080fd5b506200010b565b8260048101928215620000d9579160200282015b82811115620000d8578251829066ffffffffffffff16905591602001919060010190620000b0565b5b509050620000e89190620000ec565b5090565b5b8082111562000107576000816000905550600101620000ed565b5090565b61377b806200011b6000396000f3fe6080604052600436106101405760003560e01c80636cd69bbd116100b6578063c45f11ed1161006f578063c45f11ed14610507578063c5df288214610532578063d76906ac1461056f578063de26bc6214610598578063f8e66a4d146105d5578063f9269e921461061257610140565b80636cd69bbd146103a557806376e92559146103e257806377deedf91461040d578063987cc11d1461044a578063a4800c2e14610487578063c0abda2a146104c457610140565b8063295ca7fb11610108578063295ca7fb14610267578063295d6766146102925780634e1a5d12146102bd578063547c3648146102fa5780635daf08ca146103255780635e8bcda91461036857610140565b80631866dcfb146101455780631e0fd101146101705780631e7130d7146101ad57806320852a8c146101ed57806320b92bf61461022a575b600080fd5b34801561015157600080fd5b5061015a61062e565b6040516101679190612fdb565b60405180910390f35b34801561017c57600080fd5b50610197600480360381019061019291906126bb565b610634565b6040516101a49190612cb0565b60405180910390f35b3480156101b957600080fd5b506101d460048036038101906101cf91906127fa565b610654565b6040516101e49493929190613024565b60405180910390f35b3480156101f957600080fd5b50610214600480360381019061020f9190612823565b610694565b6040516102219190612cb0565b60405180910390f35b34801561023657600080fd5b50610251600480360381019061024c91906127fa565b6107c7565b60405161025e9190612fdb565b60405180910390f35b34801561027357600080fd5b5061027c610a98565b6040516102899190612fdb565b60405180910390f35b34801561029e57600080fd5b506102a7610a9e565b6040516102b49190612fdb565b60405180910390f35b3480156102c957600080fd5b506102e460048036038101906102df919061277b565b610b04565b6040516102f19190612fdb565b60405180910390f35b34801561030657600080fd5b5061030f610d87565b60405161031c9190612fdb565b60405180910390f35b34801561033157600080fd5b5061034c600480360381019061034791906127fa565b610d8d565b60405161035f9796959493929190612dfe565b60405180910390f35b34801561037457600080fd5b5061038f600480360381019061038a91906126bb565b610f0c565b60405161039c9190612cb0565b60405180910390f35b3480156103b157600080fd5b506103cc60048036038101906103c79190612823565b610f2c565b6040516103d99190612cb0565b60405180910390f35b3480156103ee57600080fd5b506103f761105f565b6040516104049190612fdb565b60405180910390f35b34801561041957600080fd5b50610434600480360381019061042f91906127fa565b611065565b6040516104419190612fdb565b60405180910390f35b34801561045657600080fd5b50610471600480360381019061046c91906126bb565b611088565b60405161047e9190612cb0565b60405180910390f35b34801561049357600080fd5b506104ae60048036038101906104a991906126bb565b6110a8565b6040516104bb9190612cb0565b60405180910390f35b3480156104d057600080fd5b506104eb60048036038101906104e691906127fa565b6110c8565b6040516104fe9796959493929190612d79565b60405180910390f35b34801561051357600080fd5b5061051c6112f4565b6040516105299190612fdb565b60405180910390f35b34801561053e57600080fd5b50610559600480360381019061055491906127fa565b611301565b6040516105669190612fdb565b60405180910390f35b34801561057b57600080fd5b5061059660048036038101906105919190612877565b6116d4565b005b3480156105a457600080fd5b506105bf60048036038101906105ba91906127fa565b611794565b6040516105cc9190612fdb565b60405180910390f35b3480156105e157600080fd5b506105fc60048036038101906105f791906126e4565b6117af565b6040516106099190612fdb565b60405180910390f35b61062c60048036038101906106279190612877565b611a23565b005b60005481565b60066020528060005260406000206000915054906101000a900460ff1681565b6003818154811061066457600080fd5b90600052602060002090600402016000915090508060000154908060010154908060020154908060030154905084565b600061069f83611c53565b6106de576040517f08c379a00000000000000000000000000000000000000000000000000000000081526004016106d590612f1b565b60405180910390fd5b6106e88383611d06565b610727576040517f08c379a000000000000000000000000000000000000000000000000000000000815260040161071e90612e7b565b60405180910390fd5b6107656040518060400160405280601081526020017f4c6f67696e205375636365737366756c00000000000000000000000000000000815250611d85565b6001600960003373ffffffffffffffffffffffffffffffffffffffff1673ffffffffffffffffffffffffffffffffffffffff16815260200190815260200160002060006101000a81548160ff0219169083151502179055506001905092915050565b600080600460008481526020019081526020016000206006016000015490506107ee612564565b6000829050600080600090505b60038110156109845761080d83611e1e565b848260048110610846577f4e487b7100000000000000000000000000000000000000000000000000000000600052603260045260246000fd5b602002018181525050838160048110610888577f4e487b7100000000000000000000000000000000000000000000000000000000600052603260045260246000fd5b60200201518361089891906131ab565b92508381600481106108d3577f4e487b7100000000000000000000000000000000000000000000000000000000600052603260045260246000fd5b6020020151600d8260048110610912577f4e487b7100000000000000000000000000000000000000000000000000000000600052603260045260246000fd5b015461091e9190613151565b8261092991906130fb565b9150610971848260048110610967577f4e487b7100000000000000000000000000000000000000000000000000000000600052603260045260246000fd5b6020020151611e6d565b808061097c906132f0565b9150506107fb565b5061098e82611e6d565b81836003600481106109c9577f4e487b7100000000000000000000000000000000000000000000000000000000600052603260045260246000fd5b60200201818152505082600360048110610a0c577f4e487b7100000000000000000000000000000000000000000000000000000000600052603260045260246000fd5b6020020151600d600360048110610a4c577f4e487b7100000000000000000000000000000000000000000000000000000000600052603260045260246000fd5b0154610a589190613151565b81610a6391906130fb565b9050610a6e81611e6d565b80600460008881526020019081526020016000206006016003018190555080945050505050919050565b600c5481565b600080600190505b6001548111610afb57600115156005600083815260200190815260200160002060050160009054906101000a900460ff1615151415610ae85780915050610b01565b8080610af3906132f0565b915050610aa6565b50600090505b90565b6000610b0f33611f06565b15610b4f576040517f08c379a0000000000000000000000000000000000000000000000000000000008152600401610b4690612edb565b60405180910390fd5b60016000815480929190610b62906132f0565b91905055506040518060e0016040528085815260200160015481526020013373ffffffffffffffffffffffffffffffffffffffff16815260200183815260200184815260200160011515815260200160008152506005600060015481526020019081526020016000206000820151816000019080519060200190610be7929190612586565b506020820151816001015560408201518160020160006101000a81548173ffffffffffffffffffffffffffffffffffffffff021916908373ffffffffffffffffffffffffffffffffffffffff1602179055506060820151816003019080519060200190610c55929190612586565b506080820151816004015560a08201518160050160006101000a81548160ff02191690831515021790555060c082015181600601559050506001600760003373ffffffffffffffffffffffffffffffffffffffff1673ffffffffffffffffffffffffffffffffffffffff16815260200190815260200160002060006101000a81548160ff021916908315150217905550610d266040518060400160405280600b81526020017f4d656d6265722049643a20000000000000000000000000000000000000000000815250600154611fb9565b600b54600c5410610d7b57610d6f6040518060400160405280600781526020017f496e2069662e2e00000000000000000000000000000000000000000000000000815250611d85565b610d7a600154612055565b5b60015490509392505050565b600b5481565b6005602052806000526040600020600091509050806000018054610db09061328d565b80601f0160208091040260200160405190810160405280929190818152602001828054610ddc9061328d565b8015610e295780601f10610dfe57610100808354040283529160200191610e29565b820191906000526020600020905b815481529060010190602001808311610e0c57829003601f168201915b5050505050908060010154908060020160009054906101000a900473ffffffffffffffffffffffffffffffffffffffff1690806003018054610e6a9061328d565b80601f0160208091040260200160405190810160405280929190818152602001828054610e969061328d565b8015610ee35780601f10610eb857610100808354040283529160200191610ee3565b820191906000526020600020905b815481529060010190602001808311610ec657829003601f168201915b5050505050908060040154908060050160009054906101000a900460ff16908060060154905087565b60096020528060005260406000206000915054906101000a900460ff1681565b6000610f378361218c565b610f76576040517f08c379a0000000000000000000000000000000000000000000000000000000008152600401610f6d90612e9b565b60405180910390fd5b610f808383612249565b610fbf576040517f08c379a0000000000000000000000000000000000000000000000000000000008152600401610fb690612e7b565b60405180910390fd5b610ffd6040518060400160405280601181526020017f5375636365737366756c206c6f67696e21000000000000000000000000000000815250611d85565b6001600860003373ffffffffffffffffffffffffffffffffffffffff1673ffffffffffffffffffffffffffffffffffffffff16815260200190815260200160002060006101000a81548160ff0219169083151502179055506001905092915050565b60015481565b600060046000838152602001908152602001600020600601600301549050919050565b60076020528060005260406000206000915054906101000a900460ff1681565b60086020528060005260406000206000915054906101000a900460ff1681565b60046020528060005260406000206000915090508060000180546110eb9061328d565b80601f01602080910402602001604051908101604052809291908181526020018280546111179061328d565b80156111645780601f1061113957610100808354040283529160200191611164565b820191906000526020600020905b81548152906001019060200180831161114757829003601f168201915b5050505050908060010154908060020160009054906101000a900473ffffffffffffffffffffffffffffffffffffffff16908060030180546111a59061328d565b80601f01602080910402602001604051908101604052809291908181526020018280546111d19061328d565b801561121e5780601f106111f35761010080835404028352916020019161121e565b820191906000526020600020905b81548152906001019060200180831161120157829003601f168201915b5050505050908060040180546112339061328d565b80601f016020809104026020016040519081016040528092919081815260200182805461125f9061328d565b80156112ac5780601f10611281576101008083540402835291602001916112ac565b820191906000526020600020905b81548152906001019060200180831161128f57829003601f168201915b50505050509080600501549080600601604051806080016040529081600082015481526020016001820154815260200160028201548152602001600382015481525050905087565b6000600380549050905090565b6000600860003373ffffffffffffffffffffffffffffffffffffffff1673ffffffffffffffffffffffffffffffffffffffff16815260200190815260200160002060009054906101000a900460ff1680156113bd57503373ffffffffffffffffffffffffffffffffffffffff166004600084815260200190815260200160002060020160009054906101000a900473ffffffffffffffffffffffffffffffffffffffff1673ffffffffffffffffffffffffffffffffffffffff16145b6113fc576040517f08c379a00000000000000000000000000000000000000000000000000000000081526004016113f390612f9b565b60405180910390fd5b6000600460008481526020019081526020016000206006016001015414611458576040517f08c379a000000000000000000000000000000000000000000000000000000000815260040161144f90612f7b565b60405180910390fd5b6000611462610a9e565b9050600081141561158a576114ab6040518060400160405280602081526020017f4e6f206d656d6265722069732063757272656e746c7920617661696c61626c65815250611d85565b600254600460008581526020019081526020016000206006016000015410611506576001600c60008282546114e091906130fb565b9250508190555082600a6000600c54815260200190815260200160002081905550611548565b7f70c6e47d0db3de6f65728023c802832d1be7911c36329dae8ce2c029ced354de60006040516115369190612cf9565b60405180910390a160029150506116cf565b7f70c6e47d0db3de6f65728023c802832d1be7911c36329dae8ce2c029ced354de60006040516115789190612ccb565b60405180910390a160009150506116cf565b600254600460008581526020019081526020016000206006016000015410611653576115b681846122c8565b8060046000858152602001908152602001600020600601600101819055506116126040518060400160405280600e81526020017f4d656d6265722075706461746564000000000000000000000000000000000000815250611d85565b7f70c6e47d0db3de6f65728023c802832d1be7911c36329dae8ce2c029ced354de816040516116419190612ff6565b60405180910390a160019150506116cf565b6116916040518060400160405280601081526020017f4e6f7420656e6f75676820776173746500000000000000000000000000000000815250611d85565b7f70c6e47d0db3de6f65728023c802832d1be7911c36329dae8ce2c029ced354de60006040516116c19190612cf9565b60405180910390a160029150505b919050565b600860003373ffffffffffffffffffffffffffffffffffffffff1673ffffffffffffffffffffffffffffffffffffffff16815260200190815260200160002060009054906101000a900460ff16611760576040517f08c379a000000000000000000000000000000000000000000000000000000000815260040161175790612f3b565b60405180910390fd5b8060046000848152602001908152602001600020600601600001600082825461178991906130fb565b925050819055505050565b600d81600481106117a457600080fd5b016000915090505481565b60006117ba33611f06565b156117fa576040517f08c379a00000000000000000000000000000000000000000000000000000000081526004016117f190612ebb565b60405180910390fd5b60008081548092919061180c906132f0565b91905055506040518060e0016040528085815260200160005481526020013373ffffffffffffffffffffffffffffffffffffffff168152602001848152602001838152602001600081526020016040518060800160405280600081526020016000815260200160005481526020016000815250815250600460008054815260200190815260200160002060008201518160000190805190602001906118b2929190612586565b506020820151816001015560408201518160020160006101000a81548173ffffffffffffffffffffffffffffffffffffffff021916908373ffffffffffffffffffffffffffffffffffffffff1602179055506060820151816003019080519060200190611920929190612586565b50608082015181600401908051906020019061193d929190612586565b5060a0820151816005015560c0820151816006016000820151816000015560208201518160010155604082015181600201556060820151816003015550509050506001600660003373ffffffffffffffffffffffffffffffffffffffff1673ffffffffffffffffffffffffffffffffffffffff16815260200190815260200160002060006101000a81548160ff021916908315150217905550611a176040518060400160405280600d81526020017f437573746f6d65722049643a2000000000000000000000000000000000000000815250600054611fb9565b60005490509392505050565b81600460008381526020019081526020016000206006016001015414611a7e576040517f08c379a0000000000000000000000000000000000000000000000000000000008152600401611a7590612efb565b60405180910390fd5b3373ffffffffffffffffffffffffffffffffffffffff16600560006004600085815260200190815260200160002060060160010154815260200190815260200160002060020160009054906101000a900473ffffffffffffffffffffffffffffffffffffffff1673ffffffffffffffffffffffffffffffffffffffff1614611b3b576040517f08c379a0000000000000000000000000000000000000000000000000000000008152600401611b3290612fbb565b60405180910390fd5b600960003373ffffffffffffffffffffffffffffffffffffffff1673ffffffffffffffffffffffffffffffffffffffff16815260200190815260200160002060009054906101000a900460ff16611bc7576040517f08c379a0000000000000000000000000000000000000000000000000000000008152600401611bbe90612f5b565b60405180910390fd5b6004600082815260200190815260200160002060020160009054906101000a900473ffffffffffffffffffffffffffffffffffffffff1673ffffffffffffffffffffffffffffffffffffffff166108fc349081150290604051600060405180830381858888f19350505050158015611c43573d6000803e3d6000fd5b50611c4f828234612316565b5050565b60003373ffffffffffffffffffffffffffffffffffffffff166005600084815260200190815260200160002060020160009054906101000a900473ffffffffffffffffffffffffffffffffffffffff1673ffffffffffffffffffffffffffffffffffffffff161415611cc85760019050611d01565b6000600560008481526020019081526020016000206000018054611ceb9061328d565b90501115611cfc5760019050611d01565b600090505b919050565b600081604051602001611d199190612c4c565b6040516020818303038152906040528051906020012060056000858152602001908152602001600020600301604051602001611d559190612c63565b604051602081830303815290604052805190602001201415611d7a5760019050611d7f565b600090505b92915050565b611e1b81604051602401611d999190612d27565b6040516020818303038152906040527f41304fac000000000000000000000000000000000000000000000000000000007bffffffffffffffffffffffffffffffffffffffffffffffffffffffff19166020820180517bffffffffffffffffffffffffffffffffffffffffffffffffffffffff83818316178352505050506124a2565b50565b60008042604051602001611e329190612c7a565b6040516020818303038152906040528051906020012060001c905060018382611e5b9190613343565b611e6591906130fb565b915050919050565b611f0381604051602401611e819190612fdb565b6040516020818303038152906040527ff82c50f1000000000000000000000000000000000000000000000000000000007bffffffffffffffffffffffffffffffffffffffffffffffffffffffff19166020820180517bffffffffffffffffffffffffffffffffffffffffffffffffffffffff83818316178352505050506124a2565b50565b6000611f11826124cb565b600660008373ffffffffffffffffffffffffffffffffffffffff1673ffffffffffffffffffffffffffffffffffffffff16815260200190815260200160002060009054906101000a900460ff1680611fb25750600760008373ffffffffffffffffffffffffffffffffffffffff1673ffffffffffffffffffffffffffffffffffffffff16815260200190815260200160002060009054906101000a900460ff165b9050919050565b6120518282604051602401611fcf929190612d49565b6040516020818303038152906040527fb60e72cc000000000000000000000000000000000000000000000000000000007bffffffffffffffffffffffffffffffffffffffffffffffffffffffff19166020820180517bffffffffffffffffffffffffffffffffffffffffffffffffffffffff83818316178352505050506124a2565b5050565b6000600a6000600b54815260200190815260200160002054905080600560008481526020019081526020016000206006018190555060006005600084815260200190815260200160002060050160006101000a81548160ff0219169083151502179055508160046000838152602001908152602001600020600601600101819055506121166040518060400160405280600981526020017f437573746f6d657220000000000000000000000000000000000000000000000081525082611fb9565b6121556040518060400160405280601481526020017f2069732061737369676e6564204d656d6265722000000000000000000000000081525083611fb9565b600a6000600b548152602001908152602001600020600090556001600b600082825461218191906130fb565b925050819055505050565b60003373ffffffffffffffffffffffffffffffffffffffff166004600084815260200190815260200160002060020160009054906101000a900473ffffffffffffffffffffffffffffffffffffffff1673ffffffffffffffffffffffffffffffffffffffff1614156122015760019050612244565b61223f6040518060400160405280601781526020017f437573746f6d6572206e6f742072656769737465726564000000000000000000815250611d85565b600090505b919050565b60008160405160200161225c9190612c4c565b60405160208183030381529060405280519060200120600460008581526020019081526020016000206004016040516020016122989190612c63565b6040516020818303038152906040528051906020012014156122bd57600190506122c2565b600090505b92915050565b80600560008481526020019081526020016000206006018190555060006005600084815260200190815260200160002060050160006101000a81548160ff0219169083151502179055505050565b60006004600084815260200190815260200160002060060160000154905060036040518060800160405280838152602001868152602001858152602001848152509080600181540180825580915050600190039060005260206000209060040201600090919091909150600082015181600001556020820151816001015560408201518160020155606082015181600301555050806004600085815260200190815260200160002060050160008282546123d091906130fb565b92505081905550604051806080016040528060008152602001600081526020018481526020016000815250600460008581526020019081526020016000206006016000820151816000015560208201518160010155604082015181600201556060820151816003015590505060016005600086815260200190815260200160002060050160006101000a81548160ff02191690831515021790555060006005600086815260200190815260200160002060060181905550600b54600c541061249c5761249b84612055565b5b50505050565b60008151905060006a636f6e736f6c652e6c6f679050602083016000808483855afa5050505050565b612561816040516024016124df9190612c95565b6040516020818303038152906040527f2c2ecbc2000000000000000000000000000000000000000000000000000000007bffffffffffffffffffffffffffffffffffffffffffffffffffffffff19166020820180517bffffffffffffffffffffffffffffffffffffffffffffffffffffffff83818316178352505050506124a2565b50565b6040518060800160405280600490602082028036833780820191505090505090565b8280546125929061328d565b90600052602060002090601f0160209004810192826125b457600085556125fb565b82601f106125cd57805160ff19168380011785556125fb565b828001600101855582156125fb579182015b828111156125fa5782518255916020019190600101906125df565b5b509050612608919061260c565b5090565b5b8082111561262557600081600090555060010161260d565b5090565b600061263c6126378461308e565b613069565b90508281526020810184848401111561265457600080fd5b61265f84828561324b565b509392505050565b60008135905061267681613717565b92915050565b600082601f83011261268d57600080fd5b813561269d848260208601612629565b91505092915050565b6000813590506126b58161372e565b92915050565b6000602082840312156126cd57600080fd5b60006126db84828501612667565b91505092915050565b6000806000606084860312156126f957600080fd5b600084013567ffffffffffffffff81111561271357600080fd5b61271f8682870161267c565b935050602084013567ffffffffffffffff81111561273c57600080fd5b6127488682870161267c565b925050604084013567ffffffffffffffff81111561276557600080fd5b6127718682870161267c565b9150509250925092565b60008060006060848603121561279057600080fd5b600084013567ffffffffffffffff8111156127aa57600080fd5b6127b68682870161267c565b93505060206127c7868287016126a6565b925050604084013567ffffffffffffffff8111156127e457600080fd5b6127f08682870161267c565b9150509250925092565b60006020828403121561280c57600080fd5b600061281a848285016126a6565b91505092915050565b6000806040838503121561283657600080fd5b6000612844858286016126a6565b925050602083013567ffffffffffffffff81111561286157600080fd5b61286d8582860161267c565b9150509250929050565b6000806040838503121561288a57600080fd5b6000612898858286016126a6565b92505060206128a9858286016126a6565b9150509250929050565b6128bc816131f1565b82525050565b6128cb816131df565b82525050565b6128da81613203565b82525050565b6128e981613239565b82525050565b60006128fa826130d4565b61290481856130df565b935061291481856020860161325a565b61291d81613430565b840191505092915050565b6000612933826130d4565b61293d81856130f0565b935061294d81856020860161325a565b80840191505092915050565b600081546129668161328d565b61297081866130f0565b9450600182166000811461298b576001811461299c576129cf565b60ff198316865281860193506129cf565b6129a5856130bf565b60005b838110156129c7578154818901526001820191506020810190506129a8565b838801955050505b50505092915050565b60006129e56020836130df565b91506129f082613441565b602082019050919050565b6000612a086019836130df565b9150612a138261346a565b602082019050919050565b6000612a2b602f836130df565b9150612a3682613493565b604082019050919050565b6000612a4e6020836130df565b9150612a59826134e2565b602082019050919050565b6000612a716038836130df565b9150612a7c8261350b565b604082019050919050565b6000612a946012836130df565b9150612a9f8261355a565b602082019050919050565b6000612ab76023836130df565b9150612ac282613583565b604082019050919050565b6000612ada6016836130df565b9150612ae5826135d2565b602082019050919050565b6000612afd601b836130df565b9150612b08826135fb565b602082019050919050565b6000612b206019836130df565b9150612b2b82613624565b602082019050919050565b6000612b436020836130df565b9150612b4e8261364d565b602082019050919050565b6000612b666032836130df565b9150612b7182613676565b604082019050919050565b6000612b89601d836130df565b9150612b94826136c5565b602082019050919050565b6000612bac601a836130df565b9150612bb7826136ee565b602082019050919050565b608082016000820151612bd86000850182612c17565b506020820151612beb6020850182612c17565b506040820151612bfe6040850182612c17565b506060820151612c116060850182612c17565b50505050565b612c208161322f565b82525050565b612c2f8161322f565b82525050565b612c46612c418261322f565b613339565b82525050565b6000612c588284612928565b915081905092915050565b6000612c6f8284612959565b915081905092915050565b6000612c868284612c35565b60208201915081905092915050565b6000602082019050612caa60008301846128c2565b92915050565b6000602082019050612cc560008301846128d1565b92915050565b6000604082019050612ce060008301846128e0565b8181036020830152612cf181612aaa565b905092915050565b6000604082019050612d0e60008301846128e0565b8181036020830152612d1f81612acd565b905092915050565b60006020820190508181036000830152612d4181846128ef565b905092915050565b60006040820190508181036000830152612d6381856128ef565b9050612d726020830184612c26565b9392505050565b6000610140820190508181036000830152612d94818a6128ef565b9050612da36020830189612c26565b612db060408301886128b3565b8181036060830152612dc281876128ef565b90508181036080830152612dd681866128ef565b9050612de560a0830185612c26565b612df260c0830184612bc2565b98975050505050505050565b600060e0820190508181036000830152612e18818a6128ef565b9050612e276020830189612c26565b612e3460408301886128b3565b8181036060830152612e4681876128ef565b9050612e556080830186612c26565b612e6260a08301856128d1565b612e6f60c0830184612c26565b98975050505050505050565b60006020820190508181036000830152612e94816129fb565b9050919050565b60006020820190508181036000830152612eb481612a1e565b9050919050565b60006020820190508181036000830152612ed481612a41565b9050919050565b60006020820190508181036000830152612ef481612a64565b9050919050565b60006020820190508181036000830152612f1481612a87565b9050919050565b60006020820190508181036000830152612f3481612af0565b9050919050565b60006020820190508181036000830152612f5481612b13565b9050919050565b60006020820190508181036000830152612f7481612b36565b9050919050565b60006020820190508181036000830152612f9481612b59565b9050919050565b60006020820190508181036000830152612fb481612b7c565b9050919050565b60006020820190508181036000830152612fd481612b9f565b9050919050565b6000602082019050612ff06000830184612c26565b92915050565b600060408201905061300b6000830184612c26565b818103602083015261301c816129d8565b905092915050565b60006080820190506130396000830187612c26565b6130466020830186612c26565b6130536040830185612c26565b6130606060830184612c26565b95945050505050565b6000613073613084565b905061307f82826132bf565b919050565b6000604051905090565b600067ffffffffffffffff8211156130a9576130a8613401565b5b6130b282613430565b9050602081019050919050565b60008190508160005260206000209050919050565b600081519050919050565b600082825260208201905092915050565b600081905092915050565b60006131068261322f565b91506131118361322f565b9250827fffffffffffffffffffffffffffffffffffffffffffffffffffffffffffffffff0382111561314657613145613374565b5b828201905092915050565b600061315c8261322f565b91506131678361322f565b9250817fffffffffffffffffffffffffffffffffffffffffffffffffffffffffffffffff04831182151516156131a05761319f613374565b5b828202905092915050565b60006131b68261322f565b91506131c18361322f565b9250828210156131d4576131d3613374565b5b828203905092915050565b60006131ea8261320f565b9050919050565b60006131fc8261320f565b9050919050565b60008115159050919050565b600073ffffffffffffffffffffffffffffffffffffffff82169050919050565b6000819050919050565b60006132448261322f565b9050919050565b82818337600083830152505050565b60005b8381101561327857808201518184015260208101905061325d565b83811115613287576000848401525b50505050565b600060028204905060018216806132a557607f821691505b602082108114156132b9576132b86133d2565b5b50919050565b6132c882613430565b810181811067ffffffffffffffff821117156132e7576132e6613401565b5b80604052505050565b60006132fb8261322f565b91507fffffffffffffffffffffffffffffffffffffffffffffffffffffffffffffffff82141561332e5761332d613374565b5b600182019050919050565b6000819050919050565b600061334e8261322f565b91506133598361322f565b925082613369576133686133a3565b5b828206905092915050565b7f4e487b7100000000000000000000000000000000000000000000000000000000600052601160045260246000fd5b7f4e487b7100000000000000000000000000000000000000000000000000000000600052601260045260246000fd5b7f4e487b7100000000000000000000000000000000000000000000000000000000600052602260045260246000fd5b7f4e487b7100000000000000000000000000000000000000000000000000000000600052604160045260246000fd5b6000601f19601f8301169050919050565b7f5f5f5f436f6d6d6974746565204d656d626572206170706f696e7465645f5f5f600082015250565b7f5f5f5f496e76616c69642063726564656e7469616c735f5f5f00000000000000600082015250565b7f5f5f5f437573746f6d6572206e6f74207265676973746572656420776974682060008201527f74686973206163636f756e745f5f5f0000000000000000000000000000000000602082015250565b7f5f5f5f506c656173652075736520616e6f7468657220616464726573735f5f5f600082015250565b7f5f5f5f506c656173652075736520616e6f7468657220616464726573732e204160008201527f64647265737320697320726567697374657265642e5f5f5f0000000000000000602082015250565b7f5f5f5f416c726561647920706169645f5f5f0000000000000000000000000000600082015250565b7f5f5f5f4e6f206d656d62657220417661696c61626c652063757272656e746c7960008201527f5f5f5f0000000000000000000000000000000000000000000000000000000000602082015250565b7f5f5f5f4e6f7420656e6f7567682077617374655f5f5f00000000000000000000600082015250565b7f5f5f5f4d656d626572206e6f7420726567697374657265645f5f5f0000000000600082015250565b7f5f5f5f4c6f6720696e20746f206164642077617374655f5f5f00000000000000600082015250565b7f5f5f5f4d656d626572206b696e646c79206c6f6767696e2066697273745f5f5f600082015250565b7f5f5f5f436f6d6d6974746565204d656d626572206170706f696e74656420416c60008201527f7265616479204170706f696e7465645f5f5f0000000000000000000000000000602082015250565b7f5f5f5f4c6f6720696e20746f20636f6c6c6563742077617374655f5f5f000000600082015250565b7f5f5f5f4e6f74206170706f696e746564206d656d6265725f5f5f000000000000600082015250565b613720816131df565b811461372b57600080fd5b50565b6137378161322f565b811461374257600080fd5b5056fea26469706673582212201fe4881ac22193fc77068bf7fe2fd3590958107462cfbabe8bbfef83e036b7de64736f6c63430008040033",
  "linkReferences": {},
  "deployedLinkReferences": {}
}