{
  "_format": "hh-sol-artifact-1",
  "contractName": "SWMS",
  "sourceName": "src/backend/contract/SWMS.sol",
  "abi": [
    {
      "anonymous": false,
      "inputs": [
        {
          "indexed": false,
          "internalType": "uint256",
          "name": "memberId",
          "type": "uint256"
        },
        {
          "indexed": false,
          "internalType": "string",
          "name": "reason",
          "type": "string"
        }
      ],
      "name": "AppointedMember",
      "type": "event"
    },
    {
      "inputs": [
        {
          "internalType": "uint256",
          "name": "_customerId",
          "type": "uint256"
        },
        {
          "internalType": "uint256",
          "name": "_weight",
          "type": "uint256"
        }
      ],
      "name": "addWaste",
      "outputs": [],
      "stateMutability": "nonpayable",
      "type": "function"
    },
    {
      "inputs": [],
      "name": "calcPrice",
      "outputs": [
        {
          "internalType": "uint256",
          "name": "",
          "type": "uint256"
        }
      ],
      "stateMutability": "pure",
      "type": "function"
    },
    {
      "inputs": [
        {
          "internalType": "uint256",
          "name": "_customerId",
          "type": "uint256"
        }
      ],
      "name": "collectWaste",
      "outputs": [
        {
          "internalType": "uint256",
          "name": "",
          "type": "uint256"
        }
      ],
      "stateMutability": "nonpayable",
      "type": "function"
    },
    {
      "inputs": [
        {
          "internalType": "address",
          "name": "",
          "type": "address"
        }
      ],
      "name": "customerAddress",
      "outputs": [
        {
          "internalType": "bool",
          "name": "",
          "type": "bool"
        }
      ],
      "stateMutability": "view",
      "type": "function"
    },
    {
      "inputs": [
        {
          "internalType": "uint256",
          "name": "_customerId",
          "type": "uint256"
        }
      ],
      "name": "customerExists",
      "outputs": [
        {
          "internalType": "bool",
          "name": "",
          "type": "bool"
        }
      ],
      "stateMutability": "view",
      "type": "function"
    },
    {
      "inputs": [
        {
          "internalType": "address",
          "name": "",
          "type": "address"
        }
      ],
      "name": "customerLoggedIn",
      "outputs": [
        {
          "internalType": "bool",
          "name": "",
          "type": "bool"
        }
      ],
      "stateMutability": "view",
      "type": "function"
    },
    {
      "inputs": [
        {
          "internalType": "uint256",
          "name": "",
          "type": "uint256"
        }
      ],
      "name": "customers",
      "outputs": [
        {
          "internalType": "string",
          "name": "name",
          "type": "string"
        },
        {
          "internalType": "uint256",
          "name": "customerId",
          "type": "uint256"
        },
        {
          "internalType": "address payable",
          "name": "customer",
          "type": "address"
        },
        {
          "internalType": "string",
          "name": "customerAddress",
          "type": "string"
        },
        {
          "internalType": "string",
          "name": "password",
          "type": "string"
        },
        {
          "internalType": "uint256",
          "name": "totWeight",
          "type": "uint256"
        },
        {
          "components": [
            {
              "internalType": "uint256",
              "name": "weight",
              "type": "uint256"
            },
            {
              "internalType": "uint256",
              "name": "memberId",
              "type": "uint256"
            },
            {
              "internalType": "uint256",
              "name": "customerId",
              "type": "uint256"
            },
            {
              "internalType": "uint256",
              "name": "price",
              "type": "uint256"
            }
          ],
          "internalType": "struct SWMS.Order",
          "name": "curOrder",
          "type": "tuple"
        }
      ],
      "stateMutability": "view",
      "type": "function"
    },
    {
      "inputs": [],
      "name": "findAvailableMember",
      "outputs": [
        {
          "internalType": "uint256",
          "name": "",
          "type": "uint256"
        }
      ],
      "stateMutability": "view",
      "type": "function"
    },
    {
      "inputs": [],
      "name": "firstQueue",
      "outputs": [
        {
          "internalType": "uint256",
          "name": "",
          "type": "uint256"
        }
      ],
      "stateMutability": "view",
      "type": "function"
    },
    {
      "inputs": [],
      "name": "getPastOrderLength",
      "outputs": [
        {
          "internalType": "uint256",
          "name": "",
          "type": "uint256"
        }
      ],
      "stateMutability": "view",
      "type": "function"
    },
    {
      "inputs": [
        {
          "internalType": "uint256",
          "name": "_customerId",
          "type": "uint256"
        },
        {
          "internalType": "string",
          "name": "_password",
          "type": "string"
        }
      ],
      "name": "isValidCustomer",
      "outputs": [
        {
          "internalType": "bool",
          "name": "",
          "type": "bool"
        }
      ],
      "stateMutability": "view",
      "type": "function"
    },
    {
      "inputs": [
        {
          "internalType": "uint256",
          "name": "_memberId",
          "type": "uint256"
        },
        {
          "internalType": "string",
          "name": "_password",
          "type": "string"
        }
      ],
      "name": "isValidmember",
      "outputs": [
        {
          "internalType": "bool",
          "name": "",
          "type": "bool"
        }
      ],
      "stateMutability": "view",
      "type": "function"
    },
    {
      "inputs": [],
      "name": "lastQueue",
      "outputs": [
        {
          "internalType": "uint256",
          "name": "",
          "type": "uint256"
        }
      ],
      "stateMutability": "view",
      "type": "function"
    },
    {
      "inputs": [
        {
          "internalType": "uint256",
          "name": "_customerId",
          "type": "uint256"
        },
        {
          "internalType": "string",
          "name": "_password",
          "type": "string"
        }
      ],
      "name": "loginCustomer",
      "outputs": [
        {
          "internalType": "bool",
          "name": "",
          "type": "bool"
        }
      ],
      "stateMutability": "nonpayable",
      "type": "function"
    },
    {
      "inputs": [
        {
          "internalType": "uint256",
          "name": "_memberId",
          "type": "uint256"
        },
        {
          "internalType": "string",
          "name": "_password",
          "type": "string"
        }
      ],
      "name": "loginMember",
      "outputs": [
        {
          "internalType": "bool",
          "name": "",
          "type": "bool"
        }
      ],
      "stateMutability": "nonpayable",
      "type": "function"
    },
    {
      "inputs": [
        {
          "internalType": "address",
          "name": "",
          "type": "address"
        }
      ],
      "name": "memberAddress",
      "outputs": [
        {
          "internalType": "bool",
          "name": "",
          "type": "bool"
        }
      ],
      "stateMutability": "view",
      "type": "function"
    },
    {
      "inputs": [
        {
          "internalType": "uint256",
          "name": "_memberId",
          "type": "uint256"
        }
      ],
      "name": "memberExists",
      "outputs": [
        {
          "internalType": "bool",
          "name": "",
          "type": "bool"
        }
      ],
      "stateMutability": "view",
      "type": "function"
    },
    {
      "inputs": [
        {
          "internalType": "address",
          "name": "",
          "type": "address"
        }
      ],
      "name": "memberLoggedIn",
      "outputs": [
        {
          "internalType": "bool",
          "name": "",
          "type": "bool"
        }
      ],
      "stateMutability": "view",
      "type": "function"
    },
    {
      "inputs": [
        {
          "internalType": "uint256",
          "name": "",
          "type": "uint256"
        }
      ],
      "name": "members",
      "outputs": [
        {
          "internalType": "string",
          "name": "name",
          "type": "string"
        },
        {
          "internalType": "uint256",
          "name": "memberId",
          "type": "uint256"
        },
        {
          "internalType": "address payable",
          "name": "member",
          "type": "address"
        },
        {
          "internalType": "string",
          "name": "password",
          "type": "string"
        },
        {
          "internalType": "uint256",
          "name": "contactNumber",
          "type": "uint256"
        },
        {
          "internalType": "bool",
          "name": "isAvailable",
          "type": "bool"
        },
        {
          "internalType": "uint256",
          "name": "customerId",
          "type": "uint256"
        }
      ],
      "stateMutability": "view",
      "type": "function"
    },
    {
      "inputs": [
        {
          "internalType": "uint256",
          "name": "",
          "type": "uint256"
        }
      ],
      "name": "pastOrders",
      "outputs": [
        {
          "internalType": "uint256",
          "name": "weight",
          "type": "uint256"
        },
        {
          "internalType": "uint256",
          "name": "memberId",
          "type": "uint256"
        },
        {
          "internalType": "uint256",
          "name": "customerId",
          "type": "uint256"
        },
        {
          "internalType": "uint256",
          "name": "price",
          "type": "uint256"
        }
      ],
      "stateMutability": "view",
      "type": "function"
    },
    {
      "inputs": [
        {
          "internalType": "uint256",
          "name": "eths",
          "type": "uint256"
        }
      ],
      "name": "payCustomer",
      "outputs": [],
      "stateMutability": "nonpayable",
      "type": "function"
    },
    {
      "inputs": [
        {
          "internalType": "string",
          "name": "_name",
          "type": "string"
        },
        {
          "internalType": "uint256",
          "name": "_contactNumber",
          "type": "uint256"
        },
        {
          "internalType": "string",
          "name": "_password",
          "type": "string"
        }
      ],
      "name": "registerCommittee",
      "outputs": [
        {
          "internalType": "uint256",
          "name": "",
          "type": "uint256"
        }
      ],
      "stateMutability": "nonpayable",
      "type": "function"
    },
    {
      "inputs": [
        {
          "internalType": "string",
          "name": "_name",
          "type": "string"
        },
        {
          "internalType": "string",
          "name": "_customerAddress",
          "type": "string"
        },
        {
          "internalType": "string",
          "name": "_password",
          "type": "string"
        }
      ],
      "name": "registerCustomer",
      "outputs": [
        {
          "internalType": "uint256",
          "name": "",
          "type": "uint256"
        }
      ],
      "stateMutability": "nonpayable",
      "type": "function"
    },
    {
      "inputs": [],
      "name": "totalCustomers",
      "outputs": [
        {
          "internalType": "uint256",
          "name": "",
          "type": "uint256"
        }
      ],
      "stateMutability": "view",
      "type": "function"
    },
    {
      "inputs": [],
      "name": "totalMembers",
      "outputs": [
        {
          "internalType": "uint256",
          "name": "",
          "type": "uint256"
        }
      ],
      "stateMutability": "view",
      "type": "function"
    },
    {
      "inputs": [
        {
          "internalType": "uint256",
          "name": "_memberId",
          "type": "uint256"
        },
        {
          "internalType": "uint256",
          "name": "_customerId",
          "type": "uint256"
        }
      ],
      "name": "updateWasteCollected",
      "outputs": [],
      "stateMutability": "nonpayable",
      "type": "function"
    }
  ],
  "bytecode": "0x60806040526101f46002556001600b556000600c5534801561002057600080fd5b50612f81806100306000396000f3fe608060405234801561001057600080fd5b506004361061018e5760003560e01c80636bdcc8ab116100de578063c0abda2a11610097578063c5df288211610071578063c5df28821461052e578063d76906ac1461055e578063d98c44081461057a578063f8e66a4d146105985761018e565b8063c0abda2a146104be578063c45f11ed146104f4578063c4cb2214146105125761018e565b80636bdcc8ab146103b05780636cd69bbd146103e057806376e92559146104105780637c17c41c1461042e578063987cc11d1461045e578063a4800c2e1461048e5761018e565b8063295d67661161014b5780635135fb73116101255780635135fb7314610310578063547c36481461032c5780635daf08ca1461034a5780635e8bcda9146103805761018e565b8063295d6766146102925780632e048f60146102b05780634e1a5d12146102e05761018e565b8063163388ae146101935780631866dcfb146101c35780631e0fd101146101e15780631e7130d71461021157806320852a8c14610244578063295ca7fb14610274575b600080fd5b6101ad60048036038101906101a89190612202565b6105c8565b6040516101ba9190612640565b60405180910390f35b6101cb610685565b6040516101d8919061292b565b60405180910390f35b6101fb60048036038101906101f691906120c3565b61068b565b6040516102089190612640565b60405180910390f35b61022b60048036038101906102269190612202565b6106ab565b60405161023b9493929190612974565b60405180910390f35b61025e6004803603810190610259919061222b565b6106eb565b60405161026b9190612640565b60405180910390f35b61027c61081e565b604051610289919061292b565b60405180910390f35b61029a610824565b6040516102a7919061292b565b60405180910390f35b6102ca60048036038101906102c5919061222b565b61088a565b6040516102d79190612640565b60405180910390f35b6102fa60048036038101906102f59190612183565b610909565b604051610307919061292b565b60405180910390f35b61032a6004803603810190610325919061227f565b610b8c565b005b610334610dc3565b604051610341919061292b565b60405180910390f35b610364600480360381019061035f9190612202565b610dc9565b604051610377979695949392919061278e565b60405180910390f35b61039a600480360381019061039591906120c3565b610f48565b6040516103a79190612640565b60405180910390f35b6103ca60048036038101906103c59190612202565b610f68565b6040516103d79190612640565b60405180910390f35b6103fa60048036038101906103f5919061222b565b61101b565b6040516104079190612640565b60405180910390f35b61041861114e565b604051610425919061292b565b60405180910390f35b6104486004803603810190610443919061222b565b611154565b6040516104559190612640565b60405180910390f35b610478600480360381019061047391906120c3565b6111d3565b6040516104859190612640565b60405180910390f35b6104a860048036038101906104a391906120c3565b6111f3565b6040516104b59190612640565b60405180910390f35b6104d860048036038101906104d39190612202565b611213565b6040516104eb9796959493929190612709565b60405180910390f35b6104fc61143f565b604051610509919061292b565b60405180910390f35b61052c60048036038101906105279190612202565b61144c565b005b61054860048036038101906105439190612202565b61144f565b604051610555919061292b565b60405180910390f35b6105786004803603810190610573919061227f565b611822565b005b6105826118e2565b60405161058f919061292b565b60405180910390f35b6105b260048036038101906105ad91906120ec565b6118eb565b6040516105bf919061292b565b60405180910390f35b60003373ffffffffffffffffffffffffffffffffffffffff166004600084815260200190815260200160002060020160009054906101000a900473ffffffffffffffffffffffffffffffffffffffff1673ffffffffffffffffffffffffffffffffffffffff16141561063d5760019050610680565b61067b6040518060400160405280601781526020017f437573746f6d6572206e6f742072656769737465726564000000000000000000815250611b5f565b600090505b919050565b60005481565b60066020528060005260406000206000915054906101000a900460ff1681565b600381815481106106bb57600080fd5b90600052602060002090600402016000915090508060000154908060010154908060020154908060030154905084565b60006106f683610f68565b610735576040517f08c379a000000000000000000000000000000000000000000000000000000000815260040161072c9061288b565b60405180910390fd5b61073f838361088a565b61077e576040517f08c379a00000000000000000000000000000000000000000000000000000000081526004016107759061280b565b60405180910390fd5b6107bc6040518060400160405280601081526020017f4c6f67696e205375636365737366756c00000000000000000000000000000000815250611b5f565b6001600960003373ffffffffffffffffffffffffffffffffffffffff1673ffffffffffffffffffffffffffffffffffffffff16815260200190815260200160002060006101000a81548160ff0219169083151502179055506001905092915050565b600c5481565b600080600190505b600154811161088157600115156005600083815260200190815260200160002060050160009054906101000a900460ff161515141561086e5780915050610887565b808061087990612bb2565b91505061082c565b50600090505b90565b60008160405160200161089d91906125f7565b60405160208183030381529060405280519060200120600560008581526020019081526020016000206003016040516020016108d9919061260e565b6040516020818303038152906040528051906020012014156108fe5760019050610903565b600090505b92915050565b600061091433611bf8565b15610954576040517f08c379a000000000000000000000000000000000000000000000000000000000815260040161094b9061286b565b60405180910390fd5b6001600081548092919061096790612bb2565b91905055506040518060e0016040528085815260200160015481526020013373ffffffffffffffffffffffffffffffffffffffff168152602001838152602001848152602001600115158152602001600081525060056000600154815260200190815260200160002060008201518160000190805190602001906109ec929190611f8e565b506020820151816001015560408201518160020160006101000a81548173ffffffffffffffffffffffffffffffffffffffff021916908373ffffffffffffffffffffffffffffffffffffffff1602179055506060820151816003019080519060200190610a5a929190611f8e565b506080820151816004015560a08201518160050160006101000a81548160ff02191690831515021790555060c082015181600601559050506001600760003373ffffffffffffffffffffffffffffffffffffffff1673ffffffffffffffffffffffffffffffffffffffff16815260200190815260200160002060006101000a81548160ff021916908315150217905550610b2b6040518060400160405280600b81526020017f4d656d6265722049643a20000000000000000000000000000000000000000000815250600154611cab565b600b54600c5410610b8057610b746040518060400160405280600781526020017f496e2069662e2e00000000000000000000000000000000000000000000000000815250611b5f565b610b7f600154611d47565b5b60015490509392505050565b600960003373ffffffffffffffffffffffffffffffffffffffff1673ffffffffffffffffffffffffffffffffffffffff16815260200190815260200160002060009054906101000a900460ff16610c18576040517f08c379a0000000000000000000000000000000000000000000000000000000008152600401610c0f906128cb565b60405180910390fd5b6000610c226118e2565b905060036040518060800160405280600460008681526020019081526020016000206006016000015481526020018581526020018481526020018381525090806001815401808255809150506001900390600052602060002090600402016000909190919091506000820151816000015560208201518160010155604082015181600201556060820151816003015550506004600083815260200190815260200160002060060160000154600460008481526020019081526020016000206005016000828254610cf29190612a4b565b92505081905550604051806080016040528060008152602001600081526020018381526020016000815250600460008481526020019081526020016000206006016000820151816000015560208201518160010155604082015181600201556060820151816003015590505060016005600085815260200190815260200160002060050160006101000a81548160ff02191690831515021790555060006005600085815260200190815260200160002060060181905550600b54600c5410610dbe57610dbd83611d47565b5b505050565b600b5481565b6005602052806000526040600020600091509050806000018054610dec90612b4f565b80601f0160208091040260200160405190810160405280929190818152602001828054610e1890612b4f565b8015610e655780601f10610e3a57610100808354040283529160200191610e65565b820191906000526020600020905b815481529060010190602001808311610e4857829003601f168201915b5050505050908060010154908060020160009054906101000a900473ffffffffffffffffffffffffffffffffffffffff1690806003018054610ea690612b4f565b80601f0160208091040260200160405190810160405280929190818152602001828054610ed290612b4f565b8015610f1f5780601f10610ef457610100808354040283529160200191610f1f565b820191906000526020600020905b815481529060010190602001808311610f0257829003601f168201915b5050505050908060040154908060050160009054906101000a900460ff16908060060154905087565b60096020528060005260406000206000915054906101000a900460ff1681565b60003373ffffffffffffffffffffffffffffffffffffffff166005600084815260200190815260200160002060020160009054906101000a900473ffffffffffffffffffffffffffffffffffffffff1673ffffffffffffffffffffffffffffffffffffffff161415610fdd5760019050611016565b600060056000848152602001908152602001600020600001805461100090612b4f565b905011156110115760019050611016565b600090505b919050565b6000611026836105c8565b611065576040517f08c379a000000000000000000000000000000000000000000000000000000000815260040161105c9061282b565b60405180910390fd5b61106f8383611154565b6110ae576040517f08c379a00000000000000000000000000000000000000000000000000000000081526004016110a59061280b565b60405180910390fd5b6110ec6040518060400160405280601181526020017f5375636365737366756c206c6f67696e21000000000000000000000000000000815250611b5f565b6001600860003373ffffffffffffffffffffffffffffffffffffffff1673ffffffffffffffffffffffffffffffffffffffff16815260200190815260200160002060006101000a81548160ff0219169083151502179055506001905092915050565b60015481565b60008160405160200161116791906125f7565b60405160208183030381529060405280519060200120600460008581526020019081526020016000206004016040516020016111a3919061260e565b6040516020818303038152906040528051906020012014156111c857600190506111cd565b600090505b92915050565b60076020528060005260406000206000915054906101000a900460ff1681565b60086020528060005260406000206000915054906101000a900460ff1681565b600460205280600052604060002060009150905080600001805461123690612b4f565b80601f016020809104026020016040519081016040528092919081815260200182805461126290612b4f565b80156112af5780601f10611284576101008083540402835291602001916112af565b820191906000526020600020905b81548152906001019060200180831161129257829003601f168201915b5050505050908060010154908060020160009054906101000a900473ffffffffffffffffffffffffffffffffffffffff16908060030180546112f090612b4f565b80601f016020809104026020016040519081016040528092919081815260200182805461131c90612b4f565b80156113695780601f1061133e57610100808354040283529160200191611369565b820191906000526020600020905b81548152906001019060200180831161134c57829003601f168201915b50505050509080600401805461137e90612b4f565b80601f01602080910402602001604051908101604052809291908181526020018280546113aa90612b4f565b80156113f75780601f106113cc576101008083540402835291602001916113f7565b820191906000526020600020905b8154815290600101906020018083116113da57829003601f168201915b50505050509080600501549080600601604051806080016040529081600082015481526020016001820154815260200160028201548152602001600382015481525050905087565b6000600380549050905090565b50565b6000600860003373ffffffffffffffffffffffffffffffffffffffff1673ffffffffffffffffffffffffffffffffffffffff16815260200190815260200160002060009054906101000a900460ff16801561150b57503373ffffffffffffffffffffffffffffffffffffffff166004600084815260200190815260200160002060020160009054906101000a900473ffffffffffffffffffffffffffffffffffffffff1673ffffffffffffffffffffffffffffffffffffffff16145b61154a576040517f08c379a00000000000000000000000000000000000000000000000000000000081526004016115419061290b565b60405180910390fd5b60006004600084815260200190815260200160002060060160010154146115a6576040517f08c379a000000000000000000000000000000000000000000000000000000000815260040161159d906128eb565b60405180910390fd5b60006115b0610824565b905060008114156116d8576115f96040518060400160405280602081526020017f4e6f206d656d6265722069732063757272656e746c7920617661696c61626c65815250611b5f565b600254600460008581526020019081526020016000206006016000015410611654576001600c600082825461162e9190612a4b565b9250508190555082600a6000600c54815260200190815260200160002081905550611696565b7f70c6e47d0db3de6f65728023c802832d1be7911c36329dae8ce2c029ced354de60006040516116849190612689565b60405180910390a1600291505061181d565b7f70c6e47d0db3de6f65728023c802832d1be7911c36329dae8ce2c029ced354de60006040516116c6919061265b565b60405180910390a1600091505061181d565b6002546004600085815260200190815260200160002060060160000154106117a1576117048184611e7e565b8060046000858152602001908152602001600020600601600101819055506117606040518060400160405280600e81526020017f4d656d6265722075706461746564000000000000000000000000000000000000815250611b5f565b7f70c6e47d0db3de6f65728023c802832d1be7911c36329dae8ce2c029ced354de8160405161178f9190612946565b60405180910390a1600191505061181d565b6117df6040518060400160405280601081526020017f4e6f7420656e6f75676820776173746500000000000000000000000000000000815250611b5f565b7f70c6e47d0db3de6f65728023c802832d1be7911c36329dae8ce2c029ced354de600060405161180f9190612689565b60405180910390a160029150505b919050565b600860003373ffffffffffffffffffffffffffffffffffffffff1673ffffffffffffffffffffffffffffffffffffffff16815260200190815260200160002060009054906101000a900460ff166118ae576040517f08c379a00000000000000000000000000000000000000000000000000000000081526004016118a5906128ab565b60405180910390fd5b806004600084815260200190815260200160002060060160000160008282546118d79190612a4b565b925050819055505050565b6000600a905090565b60006118f633611bf8565b15611936576040517f08c379a000000000000000000000000000000000000000000000000000000000815260040161192d9061284b565b60405180910390fd5b60008081548092919061194890612bb2565b91905055506040518060e0016040528085815260200160005481526020013373ffffffffffffffffffffffffffffffffffffffff168152602001848152602001838152602001600081526020016040518060800160405280600081526020016000815260200160005481526020016000815250815250600460008054815260200190815260200160002060008201518160000190805190602001906119ee929190611f8e565b506020820151816001015560408201518160020160006101000a81548173ffffffffffffffffffffffffffffffffffffffff021916908373ffffffffffffffffffffffffffffffffffffffff1602179055506060820151816003019080519060200190611a5c929190611f8e565b506080820151816004019080519060200190611a79929190611f8e565b5060a0820151816005015560c0820151816006016000820151816000015560208201518160010155604082015181600201556060820151816003015550509050506001600660003373ffffffffffffffffffffffffffffffffffffffff1673ffffffffffffffffffffffffffffffffffffffff16815260200190815260200160002060006101000a81548160ff021916908315150217905550611b536040518060400160405280600d81526020017f437573746f6d65722049643a2000000000000000000000000000000000000000815250600054611cab565b60005490509392505050565b611bf581604051602401611b7391906126b7565b6040516020818303038152906040527f41304fac000000000000000000000000000000000000000000000000000000007bffffffffffffffffffffffffffffffffffffffffffffffffffffffff19166020820180517bffffffffffffffffffffffffffffffffffffffffffffffffffffffff8381831617835250505050611ecc565b50565b6000611c0382611ef5565b600660008373ffffffffffffffffffffffffffffffffffffffff1673ffffffffffffffffffffffffffffffffffffffff16815260200190815260200160002060009054906101000a900460ff1680611ca45750600760008373ffffffffffffffffffffffffffffffffffffffff1673ffffffffffffffffffffffffffffffffffffffff16815260200190815260200160002060009054906101000a900460ff165b9050919050565b611d438282604051602401611cc19291906126d9565b6040516020818303038152906040527fb60e72cc000000000000000000000000000000000000000000000000000000007bffffffffffffffffffffffffffffffffffffffffffffffffffffffff19166020820180517bffffffffffffffffffffffffffffffffffffffffffffffffffffffff8381831617835250505050611ecc565b5050565b6000600a6000600b54815260200190815260200160002054905080600560008481526020019081526020016000206006018190555060006005600084815260200190815260200160002060050160006101000a81548160ff021916908315150217905550816004600083815260200190815260200160002060060160010181905550611e086040518060400160405280600981526020017f437573746f6d657220000000000000000000000000000000000000000000000081525082611cab565b611e476040518060400160405280601481526020017f2069732061737369676e6564204d656d6265722000000000000000000000000081525083611cab565b600a6000600b548152602001908152602001600020600090556001600b6000828254611e739190612a4b565b925050819055505050565b80600560008481526020019081526020016000206006018190555060006005600084815260200190815260200160002060050160006101000a81548160ff0219169083151502179055505050565b60008151905060006a636f6e736f6c652e6c6f679050602083016000808483855afa5050505050565b611f8b81604051602401611f099190612625565b6040516020818303038152906040527f2c2ecbc2000000000000000000000000000000000000000000000000000000007bffffffffffffffffffffffffffffffffffffffffffffffffffffffff19166020820180517bffffffffffffffffffffffffffffffffffffffffffffffffffffffff8381831617835250505050611ecc565b50565b828054611f9a90612b4f565b90600052602060002090601f016020900481019282611fbc5760008555612003565b82601f10611fd557805160ff1916838001178555612003565b82800160010185558215612003579182015b82811115612002578251825591602001919060010190611fe7565b5b5090506120109190612014565b5090565b5b8082111561202d576000816000905550600101612015565b5090565b600061204461203f846129de565b6129b9565b90508281526020810184848401111561205c57600080fd5b612067848285612b0d565b509392505050565b60008135905061207e81612f1d565b92915050565b600082601f83011261209557600080fd5b81356120a5848260208601612031565b91505092915050565b6000813590506120bd81612f34565b92915050565b6000602082840312156120d557600080fd5b60006120e38482850161206f565b91505092915050565b60008060006060848603121561210157600080fd5b600084013567ffffffffffffffff81111561211b57600080fd5b61212786828701612084565b935050602084013567ffffffffffffffff81111561214457600080fd5b61215086828701612084565b925050604084013567ffffffffffffffff81111561216d57600080fd5b61217986828701612084565b9150509250925092565b60008060006060848603121561219857600080fd5b600084013567ffffffffffffffff8111156121b257600080fd5b6121be86828701612084565b93505060206121cf868287016120ae565b925050604084013567ffffffffffffffff8111156121ec57600080fd5b6121f886828701612084565b9150509250925092565b60006020828403121561221457600080fd5b6000612222848285016120ae565b91505092915050565b6000806040838503121561223e57600080fd5b600061224c858286016120ae565b925050602083013567ffffffffffffffff81111561226957600080fd5b61227585828601612084565b9150509250929050565b6000806040838503121561229257600080fd5b60006122a0858286016120ae565b92505060206122b1858286016120ae565b9150509250929050565b6122c481612ab3565b82525050565b6122d381612aa1565b82525050565b6122e281612ac5565b82525050565b6122f181612afb565b82525050565b600061230282612a24565b61230c8185612a2f565b935061231c818560208601612b1c565b61232581612c88565b840191505092915050565b600061233b82612a24565b6123458185612a40565b9350612355818560208601612b1c565b80840191505092915050565b6000815461236e81612b4f565b6123788186612a40565b9450600182166000811461239357600181146123a4576123d7565b60ff198316865281860193506123d7565b6123ad85612a0f565b60005b838110156123cf578154818901526001820191506020810190506123b0565b838801955050505b50505092915050565b60006123ed602083612a2f565b91506123f882612c99565b602082019050919050565b6000612410601983612a2f565b915061241b82612cc2565b602082019050919050565b6000612433602f83612a2f565b915061243e82612ceb565b604082019050919050565b6000612456602083612a2f565b915061246182612d3a565b602082019050919050565b6000612479603883612a2f565b915061248482612d63565b604082019050919050565b600061249c602383612a2f565b91506124a782612db2565b604082019050919050565b60006124bf601683612a2f565b91506124ca82612e01565b602082019050919050565b60006124e2601b83612a2f565b91506124ed82612e2a565b602082019050919050565b6000612505601983612a2f565b915061251082612e53565b602082019050919050565b6000612528602083612a2f565b915061253382612e7c565b602082019050919050565b600061254b603283612a2f565b915061255682612ea5565b604082019050919050565b600061256e601d83612a2f565b915061257982612ef4565b602082019050919050565b60808201600082015161259a60008501826125d9565b5060208201516125ad60208501826125d9565b5060408201516125c060408501826125d9565b5060608201516125d360608501826125d9565b50505050565b6125e281612af1565b82525050565b6125f181612af1565b82525050565b60006126038284612330565b915081905092915050565b600061261a8284612361565b915081905092915050565b600060208201905061263a60008301846122ca565b92915050565b600060208201905061265560008301846122d9565b92915050565b600060408201905061267060008301846122e8565b81810360208301526126818161248f565b905092915050565b600060408201905061269e60008301846122e8565b81810360208301526126af816124b2565b905092915050565b600060208201905081810360008301526126d181846122f7565b905092915050565b600060408201905081810360008301526126f381856122f7565b905061270260208301846125e8565b9392505050565b6000610140820190508181036000830152612724818a6122f7565b905061273360208301896125e8565b61274060408301886122bb565b818103606083015261275281876122f7565b9050818103608083015261276681866122f7565b905061277560a08301856125e8565b61278260c0830184612584565b98975050505050505050565b600060e08201905081810360008301526127a8818a6122f7565b90506127b760208301896125e8565b6127c460408301886122bb565b81810360608301526127d681876122f7565b90506127e560808301866125e8565b6127f260a08301856122d9565b6127ff60c08301846125e8565b98975050505050505050565b6000602082019050818103600083015261282481612403565b9050919050565b6000602082019050818103600083015261284481612426565b9050919050565b6000602082019050818103600083015261286481612449565b9050919050565b600060208201905081810360008301526128848161246c565b9050919050565b600060208201905081810360008301526128a4816124d5565b9050919050565b600060208201905081810360008301526128c4816124f8565b9050919050565b600060208201905081810360008301526128e48161251b565b9050919050565b600060208201905081810360008301526129048161253e565b9050919050565b6000602082019050818103600083015261292481612561565b9050919050565b600060208201905061294060008301846125e8565b92915050565b600060408201905061295b60008301846125e8565b818103602083015261296c816123e0565b905092915050565b600060808201905061298960008301876125e8565b61299660208301866125e8565b6129a360408301856125e8565b6129b060608301846125e8565b95945050505050565b60006129c36129d4565b90506129cf8282612b81565b919050565b6000604051905090565b600067ffffffffffffffff8211156129f9576129f8612c59565b5b612a0282612c88565b9050602081019050919050565b60008190508160005260206000209050919050565b600081519050919050565b600082825260208201905092915050565b600081905092915050565b6000612a5682612af1565b9150612a6183612af1565b9250827fffffffffffffffffffffffffffffffffffffffffffffffffffffffffffffffff03821115612a9657612a95612bfb565b5b828201905092915050565b6000612aac82612ad1565b9050919050565b6000612abe82612ad1565b9050919050565b60008115159050919050565b600073ffffffffffffffffffffffffffffffffffffffff82169050919050565b6000819050919050565b6000612b0682612af1565b9050919050565b82818337600083830152505050565b60005b83811015612b3a578082015181840152602081019050612b1f565b83811115612b49576000848401525b50505050565b60006002820490506001821680612b6757607f821691505b60208210811415612b7b57612b7a612c2a565b5b50919050565b612b8a82612c88565b810181811067ffffffffffffffff82111715612ba957612ba8612c59565b5b80604052505050565b6000612bbd82612af1565b91507fffffffffffffffffffffffffffffffffffffffffffffffffffffffffffffffff821415612bf057612bef612bfb565b5b600182019050919050565b7f4e487b7100000000000000000000000000000000000000000000000000000000600052601160045260246000fd5b7f4e487b7100000000000000000000000000000000000000000000000000000000600052602260045260246000fd5b7f4e487b7100000000000000000000000000000000000000000000000000000000600052604160045260246000fd5b6000601f19601f8301169050919050565b7f5f5f5f436f6d6d6974746565204d656d626572206170706f696e7465645f5f5f600082015250565b7f5f5f5f496e76616c69642063726564656e7469616c735f5f5f00000000000000600082015250565b7f5f5f5f437573746f6d6572206e6f74207265676973746572656420776974682060008201527f74686973206163636f756e745f5f5f0000000000000000000000000000000000602082015250565b7f5f5f5f506c656173652075736520616e6f7468657220616464726573735f5f5f600082015250565b7f5f5f5f506c656173652075736520616e6f7468657220616464726573732e204160008201527f64647265737320697320726567697374657265642e5f5f5f0000000000000000602082015250565b7f5f5f5f4e6f206d656d62657220417661696c61626c652063757272656e746c7960008201527f5f5f5f0000000000000000000000000000000000000000000000000000000000602082015250565b7f5f5f5f4e6f7420656e6f7567682077617374655f5f5f00000000000000000000600082015250565b7f5f5f5f4d656d626572206e6f7420726567697374657265645f5f5f0000000000600082015250565b7f5f5f5f4c6f6720696e20746f206164642077617374655f5f5f00000000000000600082015250565b7f5f5f5f4d656d626572206b696e646c79206c6f6767696e2066697273745f5f5f600082015250565b7f5f5f5f436f6d6d6974746565204d656d626572206170706f696e74656420416c60008201527f7265616479204170706f696e7465645f5f5f0000000000000000000000000000602082015250565b7f5f5f5f4c6f6720696e20746f20636f6c6c6563742077617374655f5f5f000000600082015250565b612f2681612aa1565b8114612f3157600080fd5b50565b612f3d81612af1565b8114612f4857600080fd5b5056fea2646970667358221220e4b45e6c11b83c09bcb46cd0a96af0dc950179d242f0b7509884c32292c5981c64736f6c63430008040033",
  "linkReferences": {},
  "deployedLinkReferences": {}
}