{
  "_format": "hh-sol-artifact-1",
  "contractName": "SWMS",
  "sourceName": "src/backend/contract/SWMS.sol",
  "abi": [
    {
      "inputs": [
        {
          "internalType": "uint256",
          "name": "_customerId",
          "type": "uint256"
        },
        {
          "internalType": "uint256",
          "name": "_weight",
          "type": "uint256"
        }
      ],
      "name": "addWaste",
      "outputs": [],
      "stateMutability": "nonpayable",
      "type": "function"
    },
    {
      "inputs": [
        {
          "internalType": "uint256",
          "name": "_customerId",
          "type": "uint256"
        }
      ],
      "name": "collectWaste",
      "outputs": [
        {
          "internalType": "uint256",
          "name": "",
          "type": "uint256"
        }
      ],
      "stateMutability": "nonpayable",
      "type": "function"
    },
    {
      "inputs": [
        {
          "internalType": "address",
          "name": "",
          "type": "address"
        }
      ],
      "name": "customerAddress",
      "outputs": [
        {
          "internalType": "bool",
          "name": "",
          "type": "bool"
        }
      ],
      "stateMutability": "view",
      "type": "function"
    },
    {
      "inputs": [
        {
          "internalType": "uint256",
          "name": "_customerId",
          "type": "uint256"
        }
      ],
      "name": "customerExists",
      "outputs": [
        {
          "internalType": "bool",
          "name": "",
          "type": "bool"
        }
      ],
      "stateMutability": "view",
      "type": "function"
    },
    {
      "inputs": [
        {
          "internalType": "address",
          "name": "",
          "type": "address"
        }
      ],
      "name": "customerLoggedIn",
      "outputs": [
        {
          "internalType": "bool",
          "name": "",
          "type": "bool"
        }
      ],
      "stateMutability": "view",
      "type": "function"
    },
    {
      "inputs": [
        {
          "internalType": "uint256",
          "name": "",
          "type": "uint256"
        }
      ],
      "name": "customers",
      "outputs": [
        {
          "internalType": "string",
          "name": "name",
          "type": "string"
        },
        {
          "internalType": "uint256",
          "name": "customerId",
          "type": "uint256"
        },
        {
          "internalType": "address payable",
          "name": "customer",
          "type": "address"
        },
        {
          "internalType": "string",
          "name": "customerAddress",
          "type": "string"
        },
        {
          "internalType": "string",
          "name": "password",
          "type": "string"
        },
        {
          "internalType": "uint256",
          "name": "weight",
          "type": "uint256"
        },
        {
          "internalType": "uint256",
          "name": "memberId",
          "type": "uint256"
        }
      ],
      "stateMutability": "view",
      "type": "function"
    },
    {
      "inputs": [],
      "name": "findAvailableMember",
      "outputs": [
        {
          "internalType": "uint256",
          "name": "",
          "type": "uint256"
        }
      ],
      "stateMutability": "view",
      "type": "function"
    },
    {
      "inputs": [],
      "name": "firstQueue",
      "outputs": [
        {
          "internalType": "uint256",
          "name": "",
          "type": "uint256"
        }
      ],
      "stateMutability": "view",
      "type": "function"
    },
    {
      "inputs": [
        {
          "internalType": "uint256",
          "name": "_customerId",
          "type": "uint256"
        },
        {
          "internalType": "string",
          "name": "_password",
          "type": "string"
        }
      ],
      "name": "isValidCustomer",
      "outputs": [
        {
          "internalType": "bool",
          "name": "",
          "type": "bool"
        }
      ],
      "stateMutability": "view",
      "type": "function"
    },
    {
      "inputs": [
        {
          "internalType": "uint256",
          "name": "_memberId",
          "type": "uint256"
        },
        {
          "internalType": "string",
          "name": "_password",
          "type": "string"
        }
      ],
      "name": "isValidmember",
      "outputs": [
        {
          "internalType": "bool",
          "name": "",
          "type": "bool"
        }
      ],
      "stateMutability": "view",
      "type": "function"
    },
    {
      "inputs": [],
      "name": "lastQueue",
      "outputs": [
        {
          "internalType": "uint256",
          "name": "",
          "type": "uint256"
        }
      ],
      "stateMutability": "view",
      "type": "function"
    },
    {
      "inputs": [
        {
          "internalType": "uint256",
          "name": "_customerId",
          "type": "uint256"
        },
        {
          "internalType": "string",
          "name": "_password",
          "type": "string"
        }
      ],
      "name": "loginCustomer",
      "outputs": [
        {
          "internalType": "bool",
          "name": "",
          "type": "bool"
        }
      ],
      "stateMutability": "nonpayable",
      "type": "function"
    },
    {
      "inputs": [
        {
          "internalType": "uint256",
          "name": "_memberId",
          "type": "uint256"
        },
        {
          "internalType": "string",
          "name": "_password",
          "type": "string"
        }
      ],
      "name": "loginMember",
      "outputs": [
        {
          "internalType": "bool",
          "name": "",
          "type": "bool"
        }
      ],
      "stateMutability": "nonpayable",
      "type": "function"
    },
    {
      "inputs": [
        {
          "internalType": "address",
          "name": "",
          "type": "address"
        }
      ],
      "name": "memberAddress",
      "outputs": [
        {
          "internalType": "bool",
          "name": "",
          "type": "bool"
        }
      ],
      "stateMutability": "view",
      "type": "function"
    },
    {
      "inputs": [
        {
          "internalType": "uint256",
          "name": "_memberId",
          "type": "uint256"
        }
      ],
      "name": "memberExists",
      "outputs": [
        {
          "internalType": "bool",
          "name": "",
          "type": "bool"
        }
      ],
      "stateMutability": "view",
      "type": "function"
    },
    {
      "inputs": [
        {
          "internalType": "address",
          "name": "",
          "type": "address"
        }
      ],
      "name": "memberLoggedIn",
      "outputs": [
        {
          "internalType": "bool",
          "name": "",
          "type": "bool"
        }
      ],
      "stateMutability": "view",
      "type": "function"
    },
    {
      "inputs": [
        {
          "internalType": "uint256",
          "name": "",
          "type": "uint256"
        }
      ],
      "name": "members",
      "outputs": [
        {
          "internalType": "string",
          "name": "name",
          "type": "string"
        },
        {
          "internalType": "uint256",
          "name": "memberId",
          "type": "uint256"
        },
        {
          "internalType": "address payable",
          "name": "member",
          "type": "address"
        },
        {
          "internalType": "string",
          "name": "password",
          "type": "string"
        },
        {
          "internalType": "uint256",
          "name": "contactNumber",
          "type": "uint256"
        },
        {
          "internalType": "bool",
          "name": "isAvailable",
          "type": "bool"
        },
        {
          "internalType": "uint256",
          "name": "customerId",
          "type": "uint256"
        }
      ],
      "stateMutability": "view",
      "type": "function"
    },
    {
      "inputs": [
        {
          "internalType": "uint256",
          "name": "eths",
          "type": "uint256"
        }
      ],
      "name": "payCustomer",
      "outputs": [],
      "stateMutability": "nonpayable",
      "type": "function"
    },
    {
      "inputs": [
        {
          "internalType": "string",
          "name": "_name",
          "type": "string"
        },
        {
          "internalType": "uint256",
          "name": "_contactNumber",
          "type": "uint256"
        },
        {
          "internalType": "string",
          "name": "_password",
          "type": "string"
        }
      ],
      "name": "registerCommittee",
      "outputs": [
        {
          "internalType": "uint256",
          "name": "",
          "type": "uint256"
        }
      ],
      "stateMutability": "nonpayable",
      "type": "function"
    },
    {
      "inputs": [
        {
          "internalType": "string",
          "name": "_name",
          "type": "string"
        },
        {
          "internalType": "string",
          "name": "_customerAddress",
          "type": "string"
        },
        {
          "internalType": "string",
          "name": "_password",
          "type": "string"
        }
      ],
      "name": "registerCustomer",
      "outputs": [
        {
          "internalType": "uint256",
          "name": "",
          "type": "uint256"
        }
      ],
      "stateMutability": "nonpayable",
      "type": "function"
    },
    {
      "inputs": [],
      "name": "totalCustomers",
      "outputs": [
        {
          "internalType": "uint256",
          "name": "",
          "type": "uint256"
        }
      ],
      "stateMutability": "view",
      "type": "function"
    },
    {
      "inputs": [],
      "name": "totalMembers",
      "outputs": [
        {
          "internalType": "uint256",
          "name": "",
          "type": "uint256"
        }
      ],
      "stateMutability": "view",
      "type": "function"
    },
    {
      "inputs": [
        {
          "internalType": "uint256",
          "name": "_memberId",
          "type": "uint256"
        },
        {
          "internalType": "uint256",
          "name": "_customerId",
          "type": "uint256"
        }
      ],
      "name": "updateWasteCollected",
      "outputs": [],
      "stateMutability": "nonpayable",
      "type": "function"
    }
  ],
  "bytecode": "0x608060405261012c6002556001600a556000600b5534801561002057600080fd5b506127a8806100306000396000f3fe608060405234801561001057600080fd5b506004361061014d5760003560e01c80635e8bcda9116100c3578063a4800c2e1161007c578063a4800c2e1461041a578063c0abda2a1461044a578063c4cb221414610480578063c5df28821461049c578063d76906ac146104cc578063f8e66a4d146104e85761014d565b80635e8bcda91461030c5780636bdcc8ab1461033c5780636cd69bbd1461036c57806376e925591461039c5780637c17c41c146103ba578063987cc11d146103ea5761014d565b8063295d676611610115578063295d67661461021e5780632e048f601461023c5780634e1a5d121461026c5780635135fb731461029c578063547c3648146102b85780635daf08ca146102d65761014d565b8063163388ae146101525780631866dcfb146101825780631e0fd101146101a057806320852a8c146101d0578063295ca7fb14610200575b600080fd5b61016c60048036038101906101679190611d57565b610518565b6040516101799190612073565b60405180910390f35b61018a6105d5565b60405161019791906122c1565b60405180910390f35b6101ba60048036038101906101b59190611c18565b6105db565b6040516101c79190612073565b60405180910390f35b6101ea60048036038101906101e59190611d80565b6105fb565b6040516101f79190612073565b60405180910390f35b61020861072e565b60405161021591906122c1565b60405180910390f35b610226610734565b60405161023391906122c1565b60405180910390f35b61025660048036038101906102519190611d80565b61079a565b6040516102639190612073565b60405180910390f35b61028660048036038101906102819190611cd8565b610819565b60405161029391906122c1565b60405180910390f35b6102b660048036038101906102b19190611dd4565b610a9c565b005b6102c0610bc4565b6040516102cd91906122c1565b60405180910390f35b6102f060048036038101906102eb9190611d57565b610bca565b6040516103039796959493929190612164565b60405180910390f35b61032660048036038101906103219190611c18565b610d49565b6040516103339190612073565b60405180910390f35b61035660048036038101906103519190611d57565b610d69565b6040516103639190612073565b60405180910390f35b61038660048036038101906103819190611d80565b610e1c565b6040516103939190612073565b60405180910390f35b6103a4610f4f565b6040516103b191906122c1565b60405180910390f35b6103d460048036038101906103cf9190611d80565b610f55565b6040516103e19190612073565b60405180910390f35b61040460048036038101906103ff9190611c18565b610fd4565b6040516104119190612073565b60405180910390f35b610434600480360381019061042f9190611c18565b610ff4565b6040516104419190612073565b60405180910390f35b610464600480360381019061045f9190611d57565b611014565b60405161047797969594939291906120e0565b60405180910390f35b61049a60048036038101906104959190611d57565b61120e565b005b6104b660048036038101906104b19190611d57565b611211565b6040516104c391906122c1565b60405180910390f35b6104e660048036038101906104e19190611dd4565b61144b565b005b61050260048036038101906104fd9190611c41565b611508565b60405161050f91906122c1565b60405180910390f35b60003373ffffffffffffffffffffffffffffffffffffffff166003600084815260200190815260200160002060020160009054906101000a900473ffffffffffffffffffffffffffffffffffffffff1673ffffffffffffffffffffffffffffffffffffffff16141561058d57600190506105d0565b6105cb6040518060400160405280601781526020017f437573746f6d6572206e6f7420726567697374657265640000000000000000008152506116e6565b600090505b919050565b60005481565b60056020528060005260406000206000915054906101000a900460ff1681565b600061060683610d69565b610645576040517f08c379a000000000000000000000000000000000000000000000000000000000815260040161063c90612241565b60405180910390fd5b61064f838361079a565b61068e576040517f08c379a0000000000000000000000000000000000000000000000000000000008152600401610685906121e1565b60405180910390fd5b6106cc6040518060400160405280601081526020017f4c6f67696e205375636365737366756c000000000000000000000000000000008152506116e6565b6001600860003373ffffffffffffffffffffffffffffffffffffffff1673ffffffffffffffffffffffffffffffffffffffff16815260200190815260200160002060006101000a81548160ff0219169083151502179055506001905092915050565b600b5481565b600080600190505b600154811161079157600115156004600083815260200190815260200160002060050160009054906101000a900460ff161515141561077e5780915050610797565b8080610789906124c3565b91505061073c565b50600090505b90565b6000816040516020016107ad919061202a565b60405160208183030381529060405280519060200120600460008581526020019081526020016000206003016040516020016107e99190612041565b60405160208183030381529060405280519060200120141561080e5760019050610813565b600090505b92915050565b60006108243361177f565b15610864576040517f08c379a000000000000000000000000000000000000000000000000000000000815260040161085b90612221565b60405180910390fd5b60016000815480929190610877906124c3565b91905055506040518060e0016040528085815260200160015481526020013373ffffffffffffffffffffffffffffffffffffffff168152602001838152602001848152602001600115158152602001600081525060046000600154815260200190815260200160002060008201518160000190805190602001906108fc929190611ae3565b506020820151816001015560408201518160020160006101000a81548173ffffffffffffffffffffffffffffffffffffffff021916908373ffffffffffffffffffffffffffffffffffffffff160217905550606082015181600301908051906020019061096a929190611ae3565b506080820151816004015560a08201518160050160006101000a81548160ff02191690831515021790555060c082015181600601559050506001600660003373ffffffffffffffffffffffffffffffffffffffff1673ffffffffffffffffffffffffffffffffffffffff16815260200190815260200160002060006101000a81548160ff021916908315150217905550610a3b6040518060400160405280600b81526020017f4d656d6265722049643a20000000000000000000000000000000000000000000815250600154611832565b600a54600b5410610a9057610a846040518060400160405280600781526020017f496e2069662e2e000000000000000000000000000000000000000000000000008152506116e6565b610a8f6001546118ce565b5b60015490509392505050565b600860003373ffffffffffffffffffffffffffffffffffffffff1673ffffffffffffffffffffffffffffffffffffffff16815260200190815260200160002060009054906101000a900460ff16610b28576040517f08c379a0000000000000000000000000000000000000000000000000000000008152600401610b1f90612281565b60405180910390fd5b600060036000838152602001908152602001600020600501819055506000600360008381526020019081526020016000206006018190555060016004600084815260200190815260200160002060050160006101000a81548160ff02191690831515021790555060006004600084815260200190815260200160002060060181905550600a54600b5410610bc057610bbf826118ce565b5b5050565b600a5481565b6004602052806000526040600020600091509050806000018054610bed90612460565b80601f0160208091040260200160405190810160405280929190818152602001828054610c1990612460565b8015610c665780601f10610c3b57610100808354040283529160200191610c66565b820191906000526020600020905b815481529060010190602001808311610c4957829003601f168201915b5050505050908060010154908060020160009054906101000a900473ffffffffffffffffffffffffffffffffffffffff1690806003018054610ca790612460565b80601f0160208091040260200160405190810160405280929190818152602001828054610cd390612460565b8015610d205780601f10610cf557610100808354040283529160200191610d20565b820191906000526020600020905b815481529060010190602001808311610d0357829003601f168201915b5050505050908060040154908060050160009054906101000a900460ff16908060060154905087565b60086020528060005260406000206000915054906101000a900460ff1681565b60003373ffffffffffffffffffffffffffffffffffffffff166004600084815260200190815260200160002060020160009054906101000a900473ffffffffffffffffffffffffffffffffffffffff1673ffffffffffffffffffffffffffffffffffffffff161415610dde5760019050610e17565b6000600460008481526020019081526020016000206000018054610e0190612460565b90501115610e125760019050610e17565b600090505b919050565b6000610e2783610518565b610e66576040517f08c379a0000000000000000000000000000000000000000000000000000000008152600401610e5d90612201565b60405180910390fd5b610e708383610f55565b610eaf576040517f08c379a0000000000000000000000000000000000000000000000000000000008152600401610ea6906121e1565b60405180910390fd5b610eed6040518060400160405280601181526020017f5375636365737366756c206c6f67696e210000000000000000000000000000008152506116e6565b6001600760003373ffffffffffffffffffffffffffffffffffffffff1673ffffffffffffffffffffffffffffffffffffffff16815260200190815260200160002060006101000a81548160ff0219169083151502179055506001905092915050565b60015481565b600081604051602001610f68919061202a565b6040516020818303038152906040528051906020012060036000858152602001908152602001600020600401604051602001610fa49190612041565b604051602081830303815290604052805190602001201415610fc95760019050610fce565b600090505b92915050565b60066020528060005260406000206000915054906101000a900460ff1681565b60076020528060005260406000206000915054906101000a900460ff1681565b600360205280600052604060002060009150905080600001805461103790612460565b80601f016020809104026020016040519081016040528092919081815260200182805461106390612460565b80156110b05780601f10611085576101008083540402835291602001916110b0565b820191906000526020600020905b81548152906001019060200180831161109357829003601f168201915b5050505050908060010154908060020160009054906101000a900473ffffffffffffffffffffffffffffffffffffffff16908060030180546110f190612460565b80601f016020809104026020016040519081016040528092919081815260200182805461111d90612460565b801561116a5780601f1061113f5761010080835404028352916020019161116a565b820191906000526020600020905b81548152906001019060200180831161114d57829003601f168201915b50505050509080600401805461117f90612460565b80601f01602080910402602001604051908101604052809291908181526020018280546111ab90612460565b80156111f85780601f106111cd576101008083540402835291602001916111f8565b820191906000526020600020905b8154815290600101906020018083116111db57829003601f168201915b5050505050908060050154908060060154905087565b50565b6000600760003373ffffffffffffffffffffffffffffffffffffffff1673ffffffffffffffffffffffffffffffffffffffff16815260200190815260200160002060009054906101000a900460ff1661129f576040517f08c379a0000000000000000000000000000000000000000000000000000000008152600401611296906122a1565b60405180910390fd5b60006112a9610734565b90506000811415611376576112f26040518060400160405280602081526020017f4e6f206d656d6265722069732063757272656e746c7920617661696c61626c658152506116e6565b60025460036000858152602001908152602001600020600501541061134a576001600b6000828254611324919061236e565b925050819055508260096000600b5481526020019081526020016000208190555061136c565b61136b6040518060600160405280602f8152602001612744602f91396116e6565b5b6000915050611446565b6002546003600085815260200190815260200160002060050154106114025761139f8184611a02565b8060036000858152602001908152602001600020600601819055506113f86040518060400160405280600e81526020017f4d656d62657220757064617465640000000000000000000000000000000000008152506116e6565b6001915050611446565b6114406040518060400160405280601081526020017f4e6f7420656e6f756768207761737465000000000000000000000000000000008152506116e6565b60029150505b919050565b600760003373ffffffffffffffffffffffffffffffffffffffff1673ffffffffffffffffffffffffffffffffffffffff16815260200190815260200160002060009054906101000a900460ff166114d7576040517f08c379a00000000000000000000000000000000000000000000000000000000081526004016114ce90612261565b60405180910390fd5b806003600084815260200190815260200160002060050160008282546114fd919061236e565b925050819055505050565b600080600081548092919061151c906124c3565b91905055506040518060e0016040528085815260200160005481526020013373ffffffffffffffffffffffffffffffffffffffff1681526020018481526020018381526020016000815260200160008152506003600080548152602001908152602001600020600082015181600001908051906020019061159e929190611ae3565b506020820151816001015560408201518160020160006101000a81548173ffffffffffffffffffffffffffffffffffffffff021916908373ffffffffffffffffffffffffffffffffffffffff160217905550606082015181600301908051906020019061160c929190611ae3565b506080820151816004019080519060200190611629929190611ae3565b5060a0820151816005015560c082015181600601559050506001600560003373ffffffffffffffffffffffffffffffffffffffff1673ffffffffffffffffffffffffffffffffffffffff16815260200190815260200160002060006101000a81548160ff0219169083151502179055506116da6040518060400160405280600d81526020017f437573746f6d65722049643a2000000000000000000000000000000000000000815250600054611832565b60005490509392505050565b61177c816040516024016116fa919061208e565b6040516020818303038152906040527f41304fac000000000000000000000000000000000000000000000000000000007bffffffffffffffffffffffffffffffffffffffffffffffffffffffff19166020820180517bffffffffffffffffffffffffffffffffffffffffffffffffffffffff8381831617835250505050611a21565b50565b600061178a82611a4a565b600560008373ffffffffffffffffffffffffffffffffffffffff1673ffffffffffffffffffffffffffffffffffffffff16815260200190815260200160002060009054906101000a900460ff168061182b5750600660008373ffffffffffffffffffffffffffffffffffffffff1673ffffffffffffffffffffffffffffffffffffffff16815260200190815260200160002060009054906101000a900460ff165b9050919050565b6118ca82826040516024016118489291906120b0565b6040516020818303038152906040527fb60e72cc000000000000000000000000000000000000000000000000000000007bffffffffffffffffffffffffffffffffffffffffffffffffffffffff19166020820180517bffffffffffffffffffffffffffffffffffffffffffffffffffffffff8381831617835250505050611a21565b5050565b600060096000600a54815260200190815260200160002054905080600460008481526020019081526020016000206006018190555060006004600084815260200190815260200160002060050160006101000a81548160ff02191690831515021790555081600360008381526020019081526020016000206006018190555061198c6040518060400160405280600981526020017f437573746f6d657220000000000000000000000000000000000000000000000081525082611832565b6119cb6040518060400160405280601481526020017f2069732061737369676e6564204d656d6265722000000000000000000000000081525083611832565b60096000600a548152602001908152602001600020600090556001600a60008282546119f7919061236e565b925050819055505050565b8060046000848152602001908152602001600020600601819055505050565b60008151905060006a636f6e736f6c652e6c6f679050602083016000808483855afa5050505050565b611ae081604051602401611a5e9190612058565b6040516020818303038152906040527f2c2ecbc2000000000000000000000000000000000000000000000000000000007bffffffffffffffffffffffffffffffffffffffffffffffffffffffff19166020820180517bffffffffffffffffffffffffffffffffffffffffffffffffffffffff8381831617835250505050611a21565b50565b828054611aef90612460565b90600052602060002090601f016020900481019282611b115760008555611b58565b82601f10611b2a57805160ff1916838001178555611b58565b82800160010185558215611b58579182015b82811115611b57578251825591602001919060010190611b3c565b5b509050611b659190611b69565b5090565b5b80821115611b82576000816000905550600101611b6a565b5090565b6000611b99611b9484612301565b6122dc565b905082815260208101848484011115611bb157600080fd5b611bbc84828561241e565b509392505050565b600081359050611bd381612715565b92915050565b600082601f830112611bea57600080fd5b8135611bfa848260208601611b86565b91505092915050565b600081359050611c128161272c565b92915050565b600060208284031215611c2a57600080fd5b6000611c3884828501611bc4565b91505092915050565b600080600060608486031215611c5657600080fd5b600084013567ffffffffffffffff811115611c7057600080fd5b611c7c86828701611bd9565b935050602084013567ffffffffffffffff811115611c9957600080fd5b611ca586828701611bd9565b925050604084013567ffffffffffffffff811115611cc257600080fd5b611cce86828701611bd9565b9150509250925092565b600080600060608486031215611ced57600080fd5b600084013567ffffffffffffffff811115611d0757600080fd5b611d1386828701611bd9565b9350506020611d2486828701611c03565b925050604084013567ffffffffffffffff811115611d4157600080fd5b611d4d86828701611bd9565b9150509250925092565b600060208284031215611d6957600080fd5b6000611d7784828501611c03565b91505092915050565b60008060408385031215611d9357600080fd5b6000611da185828601611c03565b925050602083013567ffffffffffffffff811115611dbe57600080fd5b611dca85828601611bd9565b9150509250929050565b60008060408385031215611de757600080fd5b6000611df585828601611c03565b9250506020611e0685828601611c03565b9150509250929050565b611e19816123d6565b82525050565b611e28816123c4565b82525050565b611e37816123e8565b82525050565b6000611e4882612347565b611e528185612352565b9350611e6281856020860161242d565b611e6b81612599565b840191505092915050565b6000611e8182612347565b611e8b8185612363565b9350611e9b81856020860161242d565b80840191505092915050565b60008154611eb481612460565b611ebe8186612363565b94506001821660008114611ed95760018114611eea57611f1d565b60ff19831686528186019350611f1d565b611ef385612332565b60005b83811015611f1557815481890152600182019150602081019050611ef6565b838801955050505b50505092915050565b6000611f33601983612352565b9150611f3e826125aa565b602082019050919050565b6000611f56602f83612352565b9150611f61826125d3565b604082019050919050565b6000611f79603883612352565b9150611f8482612622565b604082019050919050565b6000611f9c601b83612352565b9150611fa782612671565b602082019050919050565b6000611fbf601983612352565b9150611fca8261269a565b602082019050919050565b6000611fe2602083612352565b9150611fed826126c3565b602082019050919050565b6000612005601d83612352565b9150612010826126ec565b602082019050919050565b61202481612414565b82525050565b60006120368284611e76565b915081905092915050565b600061204d8284611ea7565b915081905092915050565b600060208201905061206d6000830184611e1f565b92915050565b60006020820190506120886000830184611e2e565b92915050565b600060208201905081810360008301526120a88184611e3d565b905092915050565b600060408201905081810360008301526120ca8185611e3d565b90506120d9602083018461201b565b9392505050565b600060e08201905081810360008301526120fa818a611e3d565b9050612109602083018961201b565b6121166040830188611e10565b81810360608301526121288187611e3d565b9050818103608083015261213c8186611e3d565b905061214b60a083018561201b565b61215860c083018461201b565b98975050505050505050565b600060e082019050818103600083015261217e818a611e3d565b905061218d602083018961201b565b61219a6040830188611e10565b81810360608301526121ac8187611e3d565b90506121bb608083018661201b565b6121c860a0830185611e2e565b6121d560c083018461201b565b98975050505050505050565b600060208201905081810360008301526121fa81611f26565b9050919050565b6000602082019050818103600083015261221a81611f49565b9050919050565b6000602082019050818103600083015261223a81611f6c565b9050919050565b6000602082019050818103600083015261225a81611f8f565b9050919050565b6000602082019050818103600083015261227a81611fb2565b9050919050565b6000602082019050818103600083015261229a81611fd5565b9050919050565b600060208201905081810360008301526122ba81611ff8565b9050919050565b60006020820190506122d6600083018461201b565b92915050565b60006122e66122f7565b90506122f28282612492565b919050565b6000604051905090565b600067ffffffffffffffff82111561231c5761231b61256a565b5b61232582612599565b9050602081019050919050565b60008190508160005260206000209050919050565b600081519050919050565b600082825260208201905092915050565b600081905092915050565b600061237982612414565b915061238483612414565b9250827fffffffffffffffffffffffffffffffffffffffffffffffffffffffffffffffff038211156123b9576123b861250c565b5b828201905092915050565b60006123cf826123f4565b9050919050565b60006123e1826123f4565b9050919050565b60008115159050919050565b600073ffffffffffffffffffffffffffffffffffffffff82169050919050565b6000819050919050565b82818337600083830152505050565b60005b8381101561244b578082015181840152602081019050612430565b8381111561245a576000848401525b50505050565b6000600282049050600182168061247857607f821691505b6020821081141561248c5761248b61253b565b5b50919050565b61249b82612599565b810181811067ffffffffffffffff821117156124ba576124b961256a565b5b80604052505050565b60006124ce82612414565b91507fffffffffffffffffffffffffffffffffffffffffffffffffffffffffffffffff8214156125015761250061250c565b5b600182019050919050565b7f4e487b7100000000000000000000000000000000000000000000000000000000600052601160045260246000fd5b7f4e487b7100000000000000000000000000000000000000000000000000000000600052602260045260246000fd5b7f4e487b7100000000000000000000000000000000000000000000000000000000600052604160045260246000fd5b6000601f19601f8301169050919050565b7f5f5f5f496e76616c69642063726564656e7469616c735f5f5f00000000000000600082015250565b7f5f5f5f437573746f6d6572206e6f74207265676973746572656420776974682060008201527f74686973206163636f756e745f5f5f0000000000000000000000000000000000602082015250565b7f5f5f5f506c656173652075736520616e6f7468657220616464726573732e204160008201527f64647265737320697320726567697374657265642e5f5f5f0000000000000000602082015250565b7f5f5f5f4d656d626572206e6f7420726567697374657265645f5f5f0000000000600082015250565b7f5f5f5f4c6f6720696e20746f206164642077617374655f5f5f00000000000000600082015250565b7f5f5f5f4d656d626572206b696e646c79206c6f6767696e2066697273745f5f5f600082015250565b7f5f5f5f4c6f6720696e20746f20636f6c6c6563742077617374655f5f5f000000600082015250565b61271e816123c4565b811461272957600080fd5b50565b61273581612414565b811461274057600080fd5b5056fe4d656d6265722077696c6c2061737369676e6564206166746572207265616368696e6720746865206d696e2076616ca2646970667358221220cd207ed1c1409a4882ab2dec4edbc7b00a462ce41e23316b027e1494fc1f4b0664736f6c63430008040033",
  "linkReferences": {},
  "deployedLinkReferences": {}
}